:020000040800F2
:10000000105000205502000825100008C10F0008FC
:10001000211000084D050008011300080000000031
:10002000000000000000000000000000A110000817
:10003000510500080000000031100008CD10000834
:100040006F0200086F0200086F0200086F020008CC
:100050006F0200086F0200086F0200086F020008BC
:100060006F0200086F0200086F0200086F020008AC
:100070006F0200086F0200086F0200086F0200089C
:100080006F0200086F0200086F0200086F0200088C
:100090006F0200086F0200086F0200086F0200087C
:1000A0006F0200086F0200086F0200086F0200086C
:1000B0006F0200086F0200086F0200086F0200085C
:1000C0006F0200086F0200086F0200086F0200084C
:1000D0006F0200086F0200086F0200086F0200083C
:1000E0006F0200086F0200086F0200086F0200082C
:1000F0006F020008A91100086F0200086F020008D3
:100100006F0200086F0200086F0200086F0200080B
:100110006F0200086F0200086F0200086F020008FB
:100120006F0200086F0200086F0200086F020008EB
:100130006F02000800000000000000006F020008CD
:100140006F0200086F0200086F0200086F020008CB
:100150006F0200086F0200086F0200086F020008BB
:100160006F0200086F0200086F0200086F020008AB
:100170006F0200086F02000800000000000000008D
:100180006F0200086F02000800F002F800F052F859
:1001900014A696E8000CB244B344DA4501D100F04D
:1001A00049F8BAE80F000FA696E83000A5EB040561
:1001B00004EB0607AAEB0704A7F101074FEA1515A0
:1001C0004FEA3414A4F10104AC4201D300F032F838
:1001D00013F0010F18BFFB1A43F0010300F001F800
:1001E000DBE718474031000060310000103A24BFBF
:1001F00078C878C1FAD8520724BF30C830C144BF8C
:1002000004680C6070470000704700000023002461
:1002100000250026103A28BF78C1FBD8520728BF16
:1002200030C148BF0B6070471FB503F045F81FBDD4
:1002300010B510BD00F04FF91146FFF7F5FF01F0C2
:1002400061F800F06DF903B4FFF7F2FF03BC00F0B2
:1002500075F900000948804709480047FEE7FEE7B6
:10026000FEE7FEE7FEE7FEE7FEE7FEE7FEE7FEE766
:1002700004480549054A064B7047000095110008DF
:1002800089010008104A002010500020104C002066
:10029000104C002053EA020C00F069802DE9F04B6D
:1002A0004FF00006002B1FBFB3FA83F503FA05F4E5
:1002B00024FA05F65E4012BF1643B2FA82F502FA3E
:1002C00005F4C5F120051EBF22FA05FC44EA0C0422
:1002D000203556EA044C4FEA144418BF641C4FF012
:1002E00000084FF00009904271EB030C39D300294C
:1002F00019BFB1FA81F701FA07F6B0FA80F700FAF0
:1003000007F6C7F120071EBF20FA07FC46EA0C06D5
:100310002037B6FBF4FCA7EB0507103F07F01F0BD7
:10032000CBF120062CFA06F60CFA0BFB44BFB346C1
:100330000026202FA4BF5E464FF0000B5BEA060CA0
:1003400008BF4FF0010B19EB0B0948EB0608ABFB9C
:10035000027C06FB02CC0BFB03CCC01B71EB0C0137
:10036000C1E70B46024641464846BDE8F08B13B54F
:10037000084318BF4FF0FF300146AFF30080BDE8DF
:100380001C407047032A40F2308010F0030C00F04C
:10039000158011F8013BBCF1020F624498BF11F8BF
:1003A00001CB00F8013B38BF11F8013BA2F1040278
:1003B00098BF00F801CB38BF00F8013B11F00303F0
:1003C00000F05780083AC0F0088051F8043B083A22
:1003D00051F804CBA0E80810F5E7121D5CBF51F8F6
:1003E000043B40F8043BAFF30080D20724BF11F870
:1003F000013B11F801CB48BF11F8012B24BF00F8D5
:10040000013B00F801CB48BF00F8012B704702F018
:10041000FF0343EA032242EA024200F002B84FF02F
:10042000000200B5134694469646203922BFA0E844
:100430000C50A0E80C50B1F12001BFF4F7AF090750
:1004400028BFA0E80C5048BF0CC05DF804EB890041
:1004500028BF40F8042B08BF704748BF20F8022B84
:1004600011F0804F18BF00F8012B7047704770479C
:10047000704710B5203AC0F00B80B1E81850A0E8E2
:100480001850B1E81850A0E81850203ABFF4F5AF62
:100490005FEA027C24BFB1E81850A0E8185044BFBE
:1004A00018C918C0BDE810405FEA827C24BF51F82B
:1004B000043B40F8043B08BF7047D20728BF31F81F
:1004C000023B48BF11F8012B28BF20F8023B48BF70
:1004D00000F8012B7047754600F02CF8AE46050079
:1004E0006946534620F00700854618B020B5FFF74F
:1004F000BFFEBDE820404FF000064FF000074FF070
:1005000000084FF0000BAC46ACE8C009ACE8C009ED
:10051000ACE8C009ACE8C00921F007018D4670477E
:1005200010B50446AFF300802046BDE81040FFF749
:100530008ABE0000004870471000002001491820C2
:10054000ABBEFEE72600020070470000FEE7000099
:100550007047000044F21430C2F200000068704797
:1005600040F2000044F21431C2F20000C2F2000175
:1005700000780A68104408607047000080B543F6B0
:100580000040C4F20200016841F40071016001689A
:1005900041F480610160016841F4807101600320D1
:1005A00000F0C6F80F2000F005F800F061F8002018
:1005B00080BD000070B586B0002543F6400101956E
:1005C000C4F202010A68044642F480720A600968B3
:1005D00001A801F4807101910199694600F06AF95E
:1005E000049E002E18BF012600F084F94DF68361A9
:1005F000B040C4F21B31A0FB01014FF0FF3000EB13
:10060000914140F27C1042F20002C2F20000C4F2BA
:10061000000240F2E733C0E90021C0E9025305615E
:10062000856100F08DFB054610B1284606B070BD0F
:1006300040F27C10C2F2000000F0B2FB0546002838
:10064000F3D12D2000F036F80F2C0DD82D202146A7
:100650000022002500F040F840F20400C2F2000041
:100660000460284606B070BD0125284606B070BD5E
:1006700082B0002043F640010190C4F202014A68B2
:1006800042F480424A604A6802F480420192019A30
:1006900000900868002240F08050086008680F2130
:1006A00000F08050009000986FF0010002B000F060
:1006B00013B80000002848BF704700F01F01012256
:1006C00002FA01F11C2202EAD0004EF20012CEF230
:1006D000000281507047000010B54EF60C5CCEF25F
:1006E000000CDCF80030C3F3022E8EF00704042C5B
:1006F00028BF0424BEF103034FF0FF3E0EFA04F4BA
:1007000038BF0023A14399400EFA03F39A431143E3
:1007100000F00F0200F160430901043A03F564435D
:100720006244002848BF02F10C03197010BD00009C
:100730004EF60C51CEF200010A684FF6FF031A4044
:1007400060F30A2242F0806040F0FD70086070475C
:10075000002804BF012070472DE9F04143F6080846
:10076000C4F202080446D8F8F8030D4600F007006A
:10077000884207D288F8F853D8F8F80300F0070049
:10078000A84277D12068810717D5410705D5D8F849
:10079000001041F4E051C8F80010010705D5D8F861
:1007A000001041F46041C8F80010D8F80010A268A9
:1007B00021F0F0011143C8F80010C00740D1D8F86B
:1007C000F80300F00700A84207D988F8F853D8F8D2
:1007D000F80300F00700A8424CD12068410707D574
:1007E000D8F80010E26821F4E0511143C8F8001075
:1007F000000708D5D8F80000216920F4604040EADD
:10080000C100C8F8000000F089F8D8F8001043F2E1
:10081000D222C1F30311C0F60002515C40F208027B
:1008200020FA01F140F20400C2F200000068C2F2B6
:1008300000021160FFF7BEFE0020BDE8F08100BF9E
:100840006068811E022907D258F8081C89015CBF24
:100850000120BDE8F08111E0012807D158F8081CFB
:1008600089035CBF0120BDE8F08107E058F8081C4F
:10087000890703D40120BDE8F08100BFD8F800103B
:1008800021F003010843C8F80000FFF763FE0646A5
:1008900041F28837D8F80000616800F00C00B0EB36
:1008A000810F8CD0FFF756FE801BB842F2D903208F
:1008B000BDE8F0810F22026043F60802C4F2020292
:1008C000136803F003034360136803F0F0038360CD
:1008D000136803F4E053C360D2F800C04FF4E05350
:1008E00003EADC030361D2F8F80300F007000860B4
:1008F0007047000040F2080043F60801C2F2000011
:10090000C4F202010068096843F2E222C1F38221C5
:10091000C0F60002515CC8407047000010B543F6B5
:100920000404C4F20204606800F00C0142F20040CA
:100930000829C0F2F40007D0042918BF10BD41F205
:100940000020C0F27A0010BD216801F03F0221684A
:1009500023684902C3F3881106D4A1FB00010023D8
:10096000FFF798FC07E000BF41F20020C0F27A00D8
:100970004843B0FBF2F021680222C1F3014102EBCF
:100980004101B0FBF1F010BD002804BF0120704709
:100990002DE9F04182B00446007843F60006C00716
:1009A000C4F202060CD0B06800F00C00042840F03D
:1009B00081803068800303D56068002800F06A8178
:1009C000207880071BD5B06810F00C0F09D0B068F4
:1009D00000F00C00082840F087807068400200F1A9
:1009E00083803068800703D5E068012840F0528199
:1009F0003068216920F0F80040EAC10030602078BA
:100A0000000713D4207840072AD4A569002D00F0F0
:100A10003C81B06800F00C00082840F0A180012D56
:100A200040F01081012002B0BDE8F081606900282B
:100A300040F20000C4F2472000F07E800121C0F89F
:100A4000801EFFF787FD0546706F8007DAD4FFF739
:100A500081FD401B0228F7D9032002B0BDE8F081D8
:100A6000306C5FEAC0080AD400200190306C40F07E
:100A700080503064306C00F080500190019847F253
:100A80000007C4F200073868C00547D4386840F44E
:100A900080703860FFF75EFD054600BF3868C0050E
:100AA0003CD4FFF757FD401B0228F7D9032002B0C2
:100AB000BDE8F081B06800F00C00082803D1706830
:100AC00040023FF576AF6068B0F5803F07D0B0F5E3
:100AD000A02F40F09B80306840F480203060306868
:100AE00040F4803030609BE0E06800285CD000205B
:100AF000C4F2472001210160FFF72CFD054600BF2D
:100B0000306880073FF574AFFFF724FD401B0228D3
:100B1000F6D9032002B0BDE8F08100BFA06801282B
:100B200005D0052854D1306F40F004003067306F95
:100B300040F00100306755E00021C0F8801EFFF74B
:100B400009FD0546706F80077FF55CAFFFF702FD7A
:100B5000401B0228F6D9032002B0BDE8F08100BF97
:100B60000027C4F2472700203866FFF7F3FC022D68
:100B700005460DD13068800140F19080FFF7EAFC16
:100B8000401B02284FF00300F4D902B0BDE8F08109
:100B90003068800179D5FFF7DDFC401B02284FF05B
:100BA0000300F5D9F1E700BF0020C4F2472000217F
:100BB0000160FFF7CFFC0546306880077FF51FAF67
:100BC000FFF7C8FC401B02284FF00300F4D9DCE714
:100BD000316F002821F001013167316F21F00401EC
:100BE00031677DD0FFF7B6FC054641F2883700BF7C
:100BF000306F800700F18680FFF7ACFC401BB842E5
:100C0000F6D9032002B0BDE8F08100BF31680028AA
:100C100021F480313160316821F4802131607BD052
:100C2000FFF798FC054600BF306880033FF5C8AE6B
:100C3000FFF790FC401B6428F6D9032002B0BDE802
:100C4000F08100BF7068E16900F480028A4221D11E
:100C5000216A00F03F028A421CD147F6C071626AE5
:100C60000140B1EB821F15D1A16A4FF6FF73C90392
:100C7000994300F44032A1F580318A420AD1E16AF9
:100C800000F07060B0EB016F04D1002002B0BDE84D
:100C9000F08100BF012002B0BDE8F08104F11C0525
:100CA0002FCD084340EA8210D9034FF6FF729143DB
:100CB000A1F5803140EA0560084370600120386684
:100CC000FFF748FC044600BF30688001DDD4FFF721
:100CD00041FC001B02284FF00300F5D955E700BF87
:100CE000FFF738FC054641F2883700BF306F8007B8
:100CF00008D5FFF72FFC401BB8424FF00300F5D991
:100D000043E700BFB8F1000F3FF57FAE306C20F035
:100D10008050306479E600BFFFF71CFC054600BF39
:100D2000306880037FF54CAEFFF714FC401B64284D
:100D30004FF00300F4D928E7704700007047000027
:100D4000002804BF0120704710B5044690F83D000C
:100D500028B9002084F83C00204600F01FF802204B
:100D600084F83D002068211D00F024FA012084F859
:100D7000460084F83E0084F83F0084F8400084F880
:100D8000410084F8420084F8430084F8440084F869
:100D9000450084F83D00002010BD000070470000B1
:100DA00090F83D1001291CBF01207047022180F8F6
:100DB0003D10006841F2FF72C168C4F20002904227
:100DC00041F00101C1600DDC40F2FF71C4F200018D
:100DD000884215DCB0F1804F2AD040F20041C4F2C5
:100DE000000123E040F2FF31C4F20101884213DC2C
:100DF00041F60001C4F20001884219D0002113E03D
:100E000040F60001C4F20001884211D040F60041D2
:100E1000C4F200010AE000BF44F20001C4F2010183
:100E2000884205D040F20041C4F20101884206D157
:100E3000816801F00701062904BF0020704701689E
:100E400041F0010101600020704700007047000080
:100E500070B504460068C5680669B10716D515F077
:100E6000020113D06FF00201016101212177806935
:100E7000800703D02046FFF7E9FF05E0204600F099
:100E80008FF8204600F08EF800202077700719D5E3
:100E900015F0040016D020686FF0040101610221F2
:100EA0002177806910F4407F04D02046FFF7CEFF01
:100EB00006E000BF204600F073F8204600F072F80C
:100EC00000202077300717D515F0080014D02068CF
:100ED0006FF00801016104212177C069800703D008
:100EE0002046FFF7B3FF05E0204600F059F8204602
:100EF00000F058F800202077F00619D515F0100002
:100F000016D020686FF01001016108212177C069B7
:100F100010F4407F04D02046FFF798FF06E000BFA2
:100F2000204600F03DF8204600F03CF800202077F5
:100F3000F00718BF15F0010002D1300609D412E005
:100F400020686FF001010161204600F02DF83006A5
:100F500009D515F0800006D020686FF0800101618E
:100F60002046FFF7E9FE700609D515F0400006D0CF
:100F700020686FF040010161204600F01FF8B006C4
:100F800058BF70BD15F0200008D021686FF0200216
:100F900020460A61BDE87040FFF7D0BE70BD00007A
:100FA0007047000070470000006842F20001C4F280
:100FB0000001884218BF7047FFF7D2BA704700009F
:100FC000FEE7000080B541F2C50043F2EC22C0F616
:100FD0000000C0F60002002100F0E4F940F27811B0
:100FE000C2F20001086080BD82B0002043F63001EB
:100FF0000190C4F202010A6842F080020A600A68A5
:1010000002F080020192019A0090086840F001000D
:101010000860086800F001000090009802B0704776
:10102000FEE70000FEE700000000000000000000F6
:10103000EFF30980BFF36F8F154B1A681EF0100F86
:1010400008BF20ED108A20E9F04F10602DE909005B
:101050004FF0500080F31188BFF34F8FBFF36F8FB5
:1010600001F060FA4FF0000080F31188BDE809003C
:1010700019680868B0E8F04F1EF0100F08BFB0EC18
:10108000108A80F30988BFF36F8F704700BF00BFDD
:1010900070000020000000000000000000000000C0
:1010A000074B19680868B0E8F04F80F30988BFF370
:1010B0006F8F4FF0000080F31188704700BF00BFB2
:1010C00070000020012000F02BF9FBE780B54EF204
:1010D0001000CEF20000006801F004FF012808BFF4
:1010E00080BDBDE8804001F03FBB0000B0B592B0CC
:1010F000002443F64000CDE90A44CDE908440594B4
:10110000CDE90344CDE901440094C4F20200016832
:10111000022541F080510160006800F0805000908D
:10112000009847F200000094C4F20000016841F406
:10113000804101600068A82100F480400090009880
:10114000012006904FF4803007904FF480000D90FE
:1011500004200E90119006A80C95CDE90F15FFF70D
:1011600013FC18B172B600BFFEE700BF0F20CDE937
:1011700001054FF4A05004904FF48050059001A851
:1011800005210394FFF7E4FA10B172B6FEE700BF41
:1011900012B0B0BD4EF68850CEF20000016841F4A6
:1011A000700101607047000040F27C10C2F2000044
:1011B000FFF74EBE10B540F6FF3E0368C4F2000EC6
:1011C00040F2004C7045C4F2010C27DCB0F1804FB6
:1011D00031D040F20042C4F2000290422BD040F6DF
:1011E0000002C4F20002904225D041F6FF72C4F220
:1011F0000002904229DC70453CDCB0F1804F5FD0AA
:1012000040F20042C4F20002904259D040F600027F
:10121000C4F20002904253D056E000BF40F60042B4
:10122000C4F20002904206D0604504D00022C4F20D
:1012300001029042D9D14A6823F07003134341F66A
:10124000FF72C4F200029042D5DD43F6FF72C4F291
:101250000102904222DC42F20002C4F200029042FB
:101260002ED00022C4F20102904229D0604527D03E
:101270002AE000BF40F60042C4F2000290421FD0B4
:1012800041F60002C4F20002904219D041F6004239
:10129000C4F20002904213D016E000BF44F20002F4
:1012A000C4F2010290420BD044F60002C4F20102E3
:1012B000904205D044F20042C4F20102904203D1B0
:1012C000CA6823F44073134323F080024B69D1F8BA
:1012D00000E08C681A430260C46240F48062C0F887
:1012E00028E0624504BF0969016301214161016988
:1012F000C90708BF10BD016921F00101016110BDDE
:10130000FEE70000FFF73AF9FFF7F0FEFFF76CFE8B
:1013100000F016F8FFF756FE00F026F8FEE7000092
:10132000EFF3058100291CBF6FF00500704700280E
:1013300004BF0020704780B500F0AAFF002080BDE8
:10134000EFF3058000281CBF6FF00500704740F2E6
:101350007410C2F200000168002911BF4FF0FF3085
:10136000012101600020704710B5EFF305800028CF
:101370001CBF6FF0050010BD40F27410C2F20000F7
:10138000016801291CBF4FF0FF3010BD4EF61F5100
:10139000CEF2000100240C700221016001F042F83D
:1013A000204610BD2DE9F04184B00B460024039483
:1013B000EFF30581D0B3C9BB52B3D2F818E0BEF148
:1013C000000F08BF4FF0180EBEF1380F2ED811795C
:1013D000C9072BD15769D2E902864FEA970C1168E9
:1013E000002F654608BF8025B8F1000F22D05C2E83
:1013F0001CD31269002A18BF002F17D0CDE900E2D4
:101400006246CDF8088001F031FD04B0BDE8F081FE
:1014100080254FF0180E002103AFAAB2CDE900E7F6
:1014200001F0F4FC0399012808BF0C46204604B0E3
:10143000BDE8F081002EF9D11269002AF6D1EBE760
:101440002DE9F041044600F0E1FD40F27006C2F2E1
:101450000006F06840F2B4250130F0603068C2F256
:10146000000558B13069002840F007813068E16A12
:10147000C06A884298BF3460FFE000BF3460F06803
:10148000012840F0FA80284600F066FD05F11400BE
:1014900000F062FD05F1280000F05EFD05F13C0062
:1014A00000F05AFD05F1500000F056FD05F1640012
:1014B00000F052FD05F1780000F04EFD05F18C00C2
:1014C00000F04AFD05F1A00000F046FD05F1B40072
:1014D00000F042FD05F1C80000F03EFD05F1DC0022
:1014E00000F03AFD05F1F00000F036FD05F58270E0
:1014F00000F032FD05F58C7000F02EFD05F59670BC
:1015000000F02AFD05F5A07000F026FD05F5AA7093
:1015100000F022FD05F5B47000F01EFD05F5BE706B
:1015200000F01AFD05F5C87000F016FD05F5D27043
:1015300000F012FD05F5DC7000F00EFD05F5E6701B
:1015400000F00AFD05F5F07000F006FD05F5FA70F3
:1015500000F002FD05F5027000F0FEFC05F50770D5
:1015600000F0FAFC05F50C7000F0F6FC05F51170C2
:1015700000F0F2FC05F5167000F0EEFC05F51B70AE
:1015800000F0EAFC05F5207000F0E6FC05F525709A
:1015900000F0E2FC05F52A7000F0DEFC05F52F7086
:1015A00000F0DAFC05F5347000F0D6FC05F5397072
:1015B00000F0D2FC05F53E7000F0CEFC05F543705E
:1015C00000F0CAFC05F5487000F0C6FC05F54D704A
:1015D00000F0C2FC05F5527000F0BEFC05F5577036
:1015E00000F0BAFC05F55C7000F0B6FC05F5617022
:1015F00000F0B2FC05F5667000F0AEFC05F56B700E
:1016000000F0AAFC05F5707000F0A6FC05F57570F9
:1016100000F0A2FC05F57A7000F09EFC05F57F70E5
:1016200000F09AFC05F5826000F096FC05F224407B
:1016300000F092FC05F5876000F08EFC05F24C404E
:1016400000F08AFC40F24C18C2F20008404600F05C
:1016500083FC08F11407384600F07EFC06F16400B4
:1016600000F07AFC06F13C0000F076FC06F1500038
:1016700000F072FCC6F81C8037627068716A421C08
:10168000E06A72608842626488BF706200EB80002A
:1016900005EB8000211D00F0A1FC00F0DBFC3069AF
:1016A00088B13068E16AC06A884228BFBDE8F0812D
:1016B0004EF60450CEF200004FF080510160BFF3AF
:1016C0004F8FBFF36F8FBDE8F081000040F27005CF
:1016D00040F2B4264EF60458C2F20005C2F20006EB
:1016E000CEF200084FF0805703E000BF204600F024
:1016F000C9FCA868D0B100F089FCA86CC468201DA2
:1017000000F0FCFBE8680138E860A8680138A860D0
:1017100000F0A0FC94F859000228EAD00128E5D096
:1017200070B9206B00F0AEFCE0E700BF3068022823
:10173000DFD3C8F80070BFF34F8FBFF36F8FD8E7C8
:101740004FF0500080F31188BFF36F8FBFF34F8FBE
:10175000FEE700002DE9F0470A9C8246206B164602
:101760000F46DDE908599100A5229846FEF74FFE85
:10177000206B002F00EB8600A0F1040020F007068C
:1017800056D0387884F83400387800284BD07878F0
:1017900084F835007878002845D0B87884F8360089
:1017A000B87800283FD0F87884F83700F878D0B3BC
:1017B000387984F838003879A8B3787984F8390012
:1017C000787980B3B87984F83A00B87958B3F87961
:1017D00084F83B00F87930B3387A84F83C00387AE2
:1017E00008B3787A84F83D00787AE0B1B87A84F862
:1017F0003E00B87AB8B1F87A84F83F00F87A90B130
:10180000387B84F84000387B68B1787B84F84100ED
:10181000787B40B1B87B84F84200B87B00281CBFBD
:10182000F87B84F84300002084F8430003E000BF05
:10183000002084F834000027201D372D28BF3725CD
:10184000E562C4E9135700F093FB04F1180000F0BF
:101850008FFBC5F13800A0613046514642462461F5
:101860006462676584F8587000F036FBB9F1000FC8
:10187000206018BFC9F80040BDE8F087084800683C
:10188000006880F308884FF0000080F3148862B687
:1018900061B6BFF34F8FBFF36F8F00DF00BF000053
:1018A00008ED00E081B00020009040F20C00C2F290
:1018B000000000684FF0500181F31188BFF36F8F73
:1018C000BFF34F8F013007D0FEE700BF009830B95B
:1018D000009820B9009810B900980028F6D001B0FF
:1018E0007047000088B040F2E80AC2F2000A0DF129
:1018F0001009EB46DAF8080005681DB1C0680468F5
:1019000001E000BF002400F005FE01F0FBFADAF868
:1019100010100646884220D3002DCAF8106051D01E
:10192000A6424FD301F0F6FBDAF80800C068C7689A
:101930003D1D284600F0E2FA97F82800410745D4FB
:1019400000F0FE0087F8280084E000BF6860DAF845
:10195000080039462D6100F00FFBDAF80800016835
:1019600031B3C068C56804682F1D384600F0C6FA58
:10197000296A2846884795F828004007EDD5A869C8
:101980002044A042E2D8DAF80000002800F04881A4
:10199000002004A931C101F0A5FADAF80000494697
:1019A0000022002300F068FF0028D6D138E100BFF4
:1019B000DAF80C10CAF81060CAE9021001F0AAFBAC
:1019C0001AE100BF65B1002210E000BFB8693F61B5
:1019D0000119B14279601FD90AF1080021E000BF66
:1019E000DAF80C000068B0FA80F04209DAF800007A
:1019F000A11B00F023FC01F08DFB002840F0FC80CF
:101A00004EF60450CEF200004FF080510160BFF35B
:101A10004F8FBFF36F8FEFE0311B814206D20AF187
:101A20000C000068294600F0A7FA13E0DAF800007D
:101A3000002800F01381002004A991C101F052FA9E
:101A4000DAF8000049460022002300F015FF0028C4
:101A500000F00481396A38468847CDE00098B0F13B
:101A6000FF3F07DCDDE9012003999047009800283B
:101A700000F1C280029E706910B1301D00F03EFA84
:101A800001F040FADAF81010074688420DD30098AA
:101A9000CAF8107009283FD9AEE000BF6860DAF8D4
:101AA000080021462D6100F067FADAF808000168A5
:101AB00041B3C068C568D0F800802C1D204600F0F6
:101AC0001DFA296A2846884795F828004007ECD572
:101AD000A86940444045E1D8DAF80000002800F049
:101AE00095800020CDE90408069501F0FBF9DAF8AD
:101AF000000049460022002300F0BEFE0028D4D199
:101B000084E000BFDAF80C10CAE902100098CAF8A5
:101B10001070092800F27080DFE800F00606064425
:101B200048620606444800BF96F82800019A40F033
:101B30000101B06986F828108318314641F8043F46
:101B4000BB42366106D997420AF1080007D2934298
:101B50000AD204E0BA1A824206D20AF10C000068E6
:101B600000F00AFA48E000BF316A3046884796F82C
:101B70002800400740D5DAF8000000285AD0019824
:101B8000B169069608440021CDE9041001F0AAF9D4
:101B9000DAF8000049460022002300F06DFE58BB31
:101BA00048E000BF96F8280022E000BF96F8280021
:101BB00040F00101019886F828100028B06143D058
:101BC000384431460AF10C0241F8040F3661B8423C
:101BD00088BF0AF10802106800F0CEF90CE000BFDF
:101BE00096F82800810703D4304600F04BFA03E052
:101BF00000F0FE0086F82800DAF8000059460022BE
:101C000000F098FF00287FF429AF73E64FF05000F2
:101C100080F31188BFF36F8FBFF34F8FFEE700BFD4
:101C20004FF0500080F31188BFF36F8FBFF34F8FD9
:101C3000FEE700BF4FF0500080F31188BFF36F8FB5
:101C4000BFF34F8FFEE700BF4FF0500080F31188C5
:101C5000BFF36F8FBFF34F8FFEE700BF4FF0500011
:101C600080F31188BFF36F8FBFF34F8FFEE7000043
:101C7000F0B581B0044600F0C9F994F94560012E31
:101C80000FDB04F1240500BF286850B1284601F09D
:101C900007FA002818BF00F045FBF0B2013E01280A
:101CA000F2D8FF2684F8456000F0D4F900F0AEF9D0
:101CB00094F94470012F0EDB04F11005286850B12F
:101CC000284601F0EDF9002818BF00F02BFBF8B210
:101CD000013F0128F2D884F8446001B0BDE8F0402B
:101CE00000F0B8B970B5044600F014FC40F2241CB2
:101CF000C2F2000CDCF8040050B19CF8000000288F
:101D000018BF4FF000404FF0000544BB83E000BF18
:101D100040F21470C2F20000420700F5705200F168
:101D2000070122F0070218BF21F007000021A2F1ED
:101D30000803CCE90601CCF8043042E90211DCF8D2
:101D40000420191AC0E9002101208CF800004FF08E
:101D50000040CCE90211002C4FF000055BD0204080
:101D600059D124F0070000F11002600708BF04F108
:101D70000802DCF80800511E81424CD2604650F83F
:101D800018EFDEF8045095422BD2DEF80010B9B1FE
:101D900074464D68954217D20B68ABB15D689542A9
:101DA00016D21868A0B14568954215D204689CB156
:101DB0006568954214D22168A6460029E9D110E051
:101DC0000CF118000DE000BF8E46204609E000BF70
:101DD0009E46084605E000BF8646184601E000BF63
:101DE000A646DCF804108E4514D00168DEF80040E9
:101DF000AB1A112B04604DD30EEB0205680719D006
:101E00004FF0500080F31188BFF36F8FBFF34F8FF7
:101E1000FEE700BF002501F07DF968075AD04FF0BA
:101E2000500080F31188BFF36F8FBFF34F8F00BF57
:101E3000FEE700BF0CF118006B60CEF8042000BF75
:101E40000368AB420AD21868A8420BD20368AB42BF
:101E500004D218681A46A842F2D304E00246184693
:101E600001E000BF1A4654686B681619AE4202D1F1
:101E7000234415465360EC18844207D1DCF8044033
:101E8000A04203D0D0E9000423446B60AA4228603A
:101E900018BF1560DEF80400DCE9022301F1080533
:101EA000111A9942CCF8081038BFCCF80C109CF8E5
:101EB000001000294FF0000118BF40F00040CEE9AB
:101EC0000010DCF810000130CCF8100001F022F90D
:101ED0006807A4D1284670BD034641F6A50021F04D
:101EE0000101C0F600004FF0807C03E903106FF0A1
:101EF0000201A3F1440043E909127047D0E901321D
:101F000001699A60D1F804C082688445536008BFB3
:101F10004A6000220261086801380860086870475A
:101F200044F21853C2F20003036044F21830C2F2C4
:101F300000000860802010607047000044F67413B1
:101F4000C2F20003036044F27450C2F20000086061
:101F50004FF48070106070474FF0FF31024642F836
:101F6000081F00214260C0E90322016070470000A1
:101F7000002101617047000010B5D1F800E01EF1AA
:101F8000010213D000F1080462681368734511D888
:101F900053681C68744511D85A68146874450FD882
:101FA00054682368A4467345EED90BE00269D2F861
:101FB00004C007E09446224604E000BF9C4601E0CE
:101FC00094461A46C1F804C0CCF808108A605160E3
:101FD000086101680131016010BD0000D0F800C047
:101FE000436808619A684B608A609A68996051609A
:101FF0000CF1010101607047DFF80C00016841F449
:10200000700101607047000088ED00E04FF0500063
:1020100080F31188BFF36F8FBFF34F8F40F20C0036
:10202000C2F2000001684A1C026009B1704700BF9B
:102030004EF60450CEF200000068000608BF70475C
:102040004FF0500080F31188BFF36F8FBFF34F8FB5
:10205000FEE7000040F20C00C2F20000016839B156
:102060000139016018BF7047002080F31188704764
:102070004FF0500080F31188BFF36F8FBFF34F8F85
:10208000FEE7000070B5002808BF70BD40F22415BF
:10209000C2F200050446287854F8041C002818BF32
:1020A0004FF0004008420DD0A4F1080632689AB102
:1020B0004FF0500080F31188BFF36F8FBFF34F8F45
:1020C000FEE700BF4FF0500080F31188BFF36F8F21
:1020D000BFF34F8FFEE700BF21EA000044F8040C75
:1020E00000F018FA54F8041CA8680844A86005F128
:1020F000180000BF0368B3420AD21868B04225D264
:102100000368B34204D218681A46B042F2D301E021
:10211000024618465368D418B44202D119441646F0
:1021200051607318834206D16B68984203D0D0E99E
:10213000000319447160B242306018BF16606869CC
:1021400001306861BDE8704000F0E4BF1A46536892
:10215000D418B442E5D1E1E74EF21000CEF200000F
:1021600000210160816040F20801C2F200010968AB
:1021700044F6D352C1F26202A1FB02124FF0FF31CA
:1021800001EB9211416007210160704744F6D01CB9
:10219000C2F2000CDCF8002022B3634653F8082F8B
:1021A00042B3634653F8102F52B3634653F8182FC7
:1021B00062B3634653F8202F72B3634653F8282F57
:1021C00082B3634653F8302F92B3634653F8382FE7
:1021D000002A18BF7047072219600CEBC201486043
:1021E000704700BF0022634619600CEBC2014860D3
:1021F000704700BF012219600CEBC20148607047B4
:10220000022219600CEBC20148607047032219607A
:102210000CEBC20148607047042219600CEBC2014C
:1022200048607047052219600CEBC2014860704796
:10223000062219600CEBC2014860704770B5154664
:102240000E460446FFF7E2FE94F84400FF2804BF60
:10225000002084F8440094F84500FF2804BF0020C3
:1022600084F84500FFF7F6FEA06B28B12046BDE8D4
:102270007040FFF7FDBC00BF04F1240031462A4640
:1022800000F092F82046BDE87040FFF7F1BC000076
:1022900070B588B340F27005C2F200050446686963
:1022A00050B14FF0500080F31188BFF36F8FBFF330
:1022B0004F8F00BFFEE700BF686901306861AE69FB
:1022C00028680430FFF71AFE2868A419446005D373
:1022D000286A29680431FFF74FFE08E0E869296899
:1022E0000431FFF749FEE86A844238BFEC6200F02F
:1022F00011FF002818BF70BD4EF60450CEF200004A
:102300004FF080510160BFF34F8FBFF36F8F70BDEF
:1023100040F27001C2F200018A6B0260896941607B
:102320007047000040F27000C2F20000012101631A
:102330007047000070B5D8B140F27004C2F20004DA
:102340000D4621681831FFF717FEA6692068043092
:10235000FFF7D4FD681C15D02068AD19456019D36E
:10236000206A21680431BDE87040FFF705BE00BF58
:102370004FF0500080F31188BFF36F8FBFF34F8F82
:10238000FEE700BF54F8500B011D2046BDE8704029
:10239000FFF724BEE06921680431FFF7EDFDE06A34
:1023A000854238BFE56270BDF0B581B0C0B140F282
:1023B0007004C2F200040D46216816461831FFF77A
:1023C0000DFEA76920680430FFF798FD96B154F818
:1023D000500B011D204601B0BDE8F040FFF7FEBDE7
:1023E0004FF0500080F31188BFF36F8FBFF34F8F12
:1023F000FEE700BF2068ED19456007D3206A216819
:10240000043101B0BDE8F040FFF7B6BDE0692168D6
:102410000431FFF7B1FDE06A854238BFE56201B0E3
:10242000F0BD000010B588B00020CDE9050006A879
:1024300005A904AAFFF774FD059800283ED0069C64
:10244000002C45D05C21049A079107995C2949D159
:1024500007992063022084F8590007A80021CDE9DC
:10246000001041F2CD60C0F6000028A100230294C4
:10247000FFF770F92046FEF7E3FF079840F270047B
:10248000C2F20004A062B0B100F0BCFE411C33D027
:10249000012810D14FF0500080F31188BFF36F8FE7
:1024A000BFF34F8F4FF0FF30E0620120206100202A
:1024B000A06100F095F808B010BD00BF4FF05000CB
:1024C00080F31188BFF36F8FBFF34F8FFEE700BF1C
:1024D0004FF0500080F31188BFF36F8FBFF34F8F21
:1024E000FEE700BF4FF0500080F31188BFF36F8FFD
:1024F000BFF34F8FFEE700BF4FF0500080F311880D
:10250000BFF36F8FBFF34F8FFEE700BF49444C45C9
:102510000000000040F27000C2F200004169013189
:102520004161704780B540F2700EC2F2000EDEF8D5
:10253000141019B10121CEF8301080BD0021CEF861
:102540003010DEF8241040F2B42C01EB8103C2F20B
:10255000000C5CF823208AB101EB81020CEB8203B2
:1025600053F8042F5268181D82421A6020D0D06898
:10257000CEF80000CEF8241080BD00BF0CEB830223
:10258000A2F12803E1B15A6922BB012918D01A68C7
:1025900012BB022914D053F8142CFAB903290FD016
:1025A00053F8282C0439002AA3F15003EAD0D3E7CA
:1025B00052681A60D068CEF80000CEF8241080BDB2
:1025C0004FF0500080F31188BFF36F8FBFF34F8F30
:1025D000FEE700BF0139BFE70239BDE70339BBE7BA
:1025E000B0B584B04EF2004CCEF2000C4CF270212B
:1025F000C4F20F11DCF800294B1C9A420AD14FF0AB
:10260000500080F31188BFF36F8FBFF34F8F00BF6F
:10261000FEE700BFDCF800298A4209D14FF05000E4
:1026200080F31188BFF36F8FBFF34F8FFEE700BFBA
:102630009CF800100291FF218CF800109CF800100B
:102640008DF807109DF8071001F0500240F2441178
:10265000C2F200010A7007224A609DF90720B2F118
:10266000FF3F6BDC032200BFD31C4B609DF80700CB
:1026700040008DF807009DF90700B0F1FF3F24DC12
:10268000931C4B609DF8070040008DF807009DF9F2
:102690000700B0F1FF3F18DC531C4B609DF80700AA
:1026A00040008DF807009DF90700B0F1FF3F0CDCFA
:1026B0004A609DF80700043A40008DF807009DF934
:1026C0000700B0F1FF3FCFDD131D032B36D14FF4D0
:1026D0004070486002988CF80000DCF8200940F453
:1026E0007000CCF82009DCF8200940F07040CCF8EC
:1026F0002009FFF731FD40F20C04C2F2000400256E
:102700002560FFF779FC4EF63470CEF200000168C8
:1027100041F040410160FFF7B1F8FFF703FF039577
:1027200020684FF0500181F31188BFF36F8FBFF322
:102730004F8F013012D000BFFEE700BF4FF05000B6
:1027400080F31188BFF36F8FBFF34F8FFEE700BF99
:10275000039830B9039820B9039810B9039800285A
:10276000F6D0002004B0B0BD80B54FF0500080F32B
:102770001188BFF36F8FBFF34F8F00F0C9FB30B1EB
:102780004EF60450CEF200004FF080510160002060
:1027900080F3118880BD000070B582B070B11C4616
:1027A000B3B1F9B9F2B14FF0500080F31188BFF323
:1027B0006F8FBFF34F8F00BFFEE700BF4FF0500099
:1027C00080F31188BFF36F8FBFF34F8FFEE700BF19
:1027D0004FF0500080F31188BFF36F8FBFF34F8F1E
:1027E000FEE700BF51B14AB94FF0500080F31188A5
:1027F000BFF36F8FBFF34F8FFEE700BF50230193EE
:10280000019B502B2ED1019B069E012384F846305C
:10281000002908BF22462260C4E90F01FFF7F6FB3A
:102820002068D4E90F12002502FB0103013901FBE6
:102830000201A563C4E90103FF20E16084F84400BC
:1028400084F8450004F11000FFF786FB04F1240032
:10285000FFF782FBFFF7FEFB204684F84C6002B0D6
:1028600070BD00BF4FF0500080F31188BFF36F8F31
:10287000BFF34F8FFEE700002DE9F04F83B00292C7
:10288000C0B11D4617460E460446E9B1022D02D1DD
:10289000E06B01285AD100F025FB18BB17B34FF0AD
:1028A000500080F31188BFF36F8FBFF34F8F00BFCD
:1028B000FEE700BF4FF0500080F31188BFF36F8F29
:1028C000BFF34F8FFEE700BF206C0028DED04FF033
:1028D000500080F31188BFF36F8FBFF34F8F00BF9D
:1028E000FEE700BFFFF792FBA06B022D65D0E16B06
:1028F000884262D30298002800F016816846FFF7EC
:1029000007FDFFF7A7FBFFF705FEFFF77FFB94F836
:102910004400FF2804BF002084F8440094F84500D8
:10292000FF2804BF002084F84500FFF793FB6846AA
:1029300002A900F01FFA98B12046FFF799F900F0BC
:10294000E9FB002003B0BDE8F08F00BF4FF050005E
:1029500080F31188BFF36F8FBFF34F8FFEE700BF87
:1029600004F11008FFF752FBD4F83890E76BFFF73B
:1029700071FBB94516D102994046FFF7DBFC2046B2
:10298000FFF776F900F0C6FB88B94EF60450CEF298
:1029900000004FF080510160BFF34F8FBFF36F8F86
:1029A00005E000BF2046FFF763F900F0B3FBFFF737
:1029B0002DFBA06BE16B884264D2A76B226CDAB16D
:1029C00025B3E0683146FDF7DDFCE168206C226844
:1029D000091A9142E16003D2A16840420844E060D4
:1029E000A81EB0FA80F040093946002F18BF012117
:1029F00008403F1A17E000BF20680025A0B9A06872
:102A000000F008FBA56005460EE000BF6068314697
:102A1000FDF7B8FCD4E90101226C104488426060E3
:102A200001D3206860600025781CA06354F8240F4F
:102A3000A0B1204600F034FB50B14EF60450CEF267
:102A400000004FF080510160BFF34F8FBFF36F8FD5
:102A5000FFF700FB012003B0BDE8F08F002DF7D099
:102A60004EF60450CEF200004FF080510160BFF3EB
:102A70004F8FBFF36F8FFFF7EDFA012003B0BDE872
:102A8000F08F00BFE94602AF0CE000BF2046FFF721
:102A9000EFF800F03FFBFFF7B9FAA06BE16B88425B
:102AA000FFF48BAF029800283ED0FFF7D3FAFFF770
:102AB00031FDFFF7ABFA94F84400FF2804BF002073
:102AC00084F8440094F84500FF2804BF002084F8EF
:102AD0004500FFF7BFFA4846394600F04BF9002899
:102AE0007FF42AAFFFF792FAD4F838A0D4F83CB0BC
:102AF000FFF7B0FADA45C9D102994046FFF71AFC50
:102B00002046FFF7B5F800F005FB0028C3D14EF6CC
:102B10000450CEF200004FF080510160BFF34F8FA0
:102B2000BFF36F8FB7E700BFFFF794FA002003B041
:102B3000BDE8F08F2DE9F04F83B0029290B11646B8
:102B40000D460446002947D000F0CCF9A0B99EB14B
:102B50004FF0500080F31188BFF36F8FBFF34F8F9A
:102B6000FEE700BF4FF0500080F31188BFF36F8F76
:102B7000BFF34F8FFEE700BFFFF748FAD4F838A045
:102B8000BAF1000F36D0226C52B1D4E902011144DF
:102B9000E160814224BF2168E1602846FDF7F2FB35
:102BA000AAF10100A06354F8100F70B1204600F0A4
:102BB00077FA50B14EF60450CEF200004FF080513B
:102BC0000160BFF34F8FBFF36F8F0124FFF742FA0D
:102BD000204603B0BDE8F08F206C0028B4D04FF041
:102BE000500080F31188BFF36F8FBFF34F8F00BF8A
:102BF000FEE700BF0298002800F0B4806846FFF7A7
:102C000087FBFFF727FAFFF785FCFFF7FFF994F83A
:102C1000440004F12408FF2804BF002084F8440085
:102C200094F84500FF2804BF002084F84500FFF712
:102C300011FA684602A900F09DF878B12046FFF726
:102C400017F800F067FAFFF7E1F9A66BFFF702FA51
:102C50002EBB0024204603B0BDE8F08FFFF7D6F965
:102C6000A66BFFF7F7F92EB12046FFF701F800F049
:102C700051FA14E002994046FFF75CFB2046FEF74C
:102C8000F7FF00F047FA50B94EF60450CEF20000BC
:102C90004FF080510160BFF34F8FBFF36F8FFFF78D
:102CA000B5F9D4F838A0BAF1000F7FF46CAF4FF04B
:102CB0000009EB4602AE13E02046FEF7D9FF00F014
:102CC00029FAFFF7A3F9A76BFFF7C4F9002FC0D0CB
:102CD000FFF79CF9D4F838A0BAF1000F7FF453AF96
:102CE000029800283ED0FFF7B5F9FFF713FCFFF775
:102CF0008DF994F84400FF2808BF84F8449094F8B4
:102D00004500FF2808BF84F84590FFF7A3F958460F
:102D1000314600F02FF80028CED1FFF777F9A76BE6
:102D2000FFF798F937B12046FEF7A2FF00F0F2F95D
:102D3000CEE700BF02994046FFF7FCFA2046FEF7B7
:102D400097FF00F0E7F90028C2D14EF60450CEF20A
:102D500000004FF080510160BFF34F8FBFF36F8FC2
:102D6000B6E700BF0024FFF775F9204603B0BDE8C1
:102D7000F08F0000B0B538B30D4679B30446FFF7C5
:102D800045F940F2700CC2F2000CDCF818202968FA
:102D90004B1C2DD0D4E9000EDCF83830834201D032
:102DA00072452DD2A2EB0E02914227D9881A2860D3
:102DB000DCF838002060DCF8180060600024FFF7C1
:102DC00049F92046B0BD00BF4FF0500080F3118894
:102DD000BFF36F8FBFF34F8FFEE700BF4FF0500080
:102DE00080F31188BFF36F8FBFF34F8FFEE700BFF3
:102DF0000024FFF72FF92046B0BD00BF0020286057
:102E00000124FFF727F92046B0BD00002DE9F0436B
:102E100083B007469000984615468946FEF762FF44
:102E2000F8B106465C20FEF75DFFB8B10446DDE967
:102E30000A100022266384F85920CDE90010384694
:102E400049462A4643460294FEF784FC2046FEF794
:102E5000F7FA012003B0BDE8F08300BF3046FFF76A
:102E600011F94FF0FF3003B0BDE8F08370B586B0C4
:102E70000B9CCCB10C9E0EB35C250495049D5C2D7F
:102E800026D1049DDDF828C0022586F8595005ADED
:102E90003463CDE900C50296FEF75CFC3046FEF7D0
:102EA000CFFA059806B070BD4FF0500080F311883E
:102EB000BFF36F8FBFF34F8FFEE700BF4FF050009F
:102EC00080F31188BFF36F8FBFF34F8FFEE700BF12
:102ED0004FF0500080F31188BFF36F8FBFF34F8F17
:102EE000FEE7000040F27000C2F200000169002914
:102EF0000FBF01204069B0FA80F0400918BF4000C0
:102F00007047000040F27000C2F200008069704714
:102F10002DE9F04381B040F27006C2F200067069FC
:102F200040B1706B002401307063204601B0BDE8F1
:102F3000F08300BFB06910F10109C6F8189020D3E2
:102F4000F069006850B14FF0500080F31188BFF372
:102F50006F8FBFF34F8F00BFFEE700BFF069316A8C
:102F6000F1613062B06B0130B063F069006828B184
:102F7000F069C068C068406802E000BF4FF0FF30F1
:102F8000F062F06A40F2B4288145C2F2000801D232
:102F900000242EE0F0690024006813E0F86A716AEA
:102FA000884288BF706200EB800008EB80002946F1
:102FB000FFF714F8F86A3168C96AF269884228BFD5
:102FC0000124106890B1F069C068C7683D4655F8A3
:102FD000040F81450CD32846FEF790FFB86A0028FD
:102FE000DCD007F11800FEF789FFD7E74FF0FF307C
:102FF000F0623068C06A00EB800058F820000128B9
:1030000088BF0124306B002818BF0124204601B07E
:10301000BDE8F08370B588B140F27006C2F20006D8
:1030200004463068A0420BD04FF0500080F3118866
:10303000BFF36F8FBFF34F8FFEE700BF002070BD5F
:10304000206D18B3013820654FF0000018BF70BD27
:10305000E16AE26C914218D0251D2846FEF74EFF2A
:10306000E06CC0F13801E062A161716A884240F20F
:10307000B42188BF706200EB8000C2F2000101EB56
:1030800080002946FEF7AAFF012070BD4FF05000D6
:1030900080F31188BFF36F8FBFF34F8FFEE70000FF
:1030A00070B5C068C5686DB105F118042046FEF71B
:1030B00025FF40F27006C2F20006706960B106F1A9
:1030C00064001AE04FF0500080F31188BFF36F8F57
:1030D000BFF34F8FFEE700BF2C1D2046FEF70EFF0B
:1030E000E86A716A884240F2B42188BF706200EBDE
:1030F0008000C2F2000101EB80002146FEF76EFF66
:10310000E86A3168C96A884292BF002001203063B2
:1031100070BD00002DE9F04140F27005C2F20005DB
:10312000686968B1FEF772FF6869013868616869AB
:1031300080B10024FEF78EFF2046BDE8F08100BF7D
:103140004FF0500080F31188BFF36F8FBFF34F8FA4
:10315000FEE700BFE8680028EBD0686E88B340F255
:10316000B426C2F200064FF0010800BF286FC768FE
:1031700007F11800FEF7C2FE3C1D2046FEF7BEFE1A
:10318000F86A696A884288BF686200EB800006EBD3
:1031900080002146FEF722FFF86A2968C96A884242
:1031A00028BFC5F83080686E0028DFD1E869006864
:1031B00020B1E869C068C068406801E04FF0FF30A6
:1031C000E8626C6B4CB10126FFF7A2FE002818BF25
:1031D0002E63013CF8D100206863286B0028A8D03A
:1031E0004EF60450CEF200004FF080510160BFF364
:1031F0004F8F0124BFF36F8FFEF72CFF2046BDE8F1
:10320000F081000070B586B0FEF700FF40F2E806DE
:10321000C2F20006306808BB06F114042046FEF72F
:103220009BFE06F128052846FEF796FE40F2C412E2
:1032300040F26423C6E902450025C2F20002C2F250
:1032400000030A2010210095FFF7A6FA306028B18C
:1032500043F21C31C0F60001FEF798FFFEF7FAFEBC
:103260003068D8B10020CDE9040005A804A903AA5C
:10327000FEF764FEDDE903200221059DCDE9001083
:1032800041F6E500C0F6000009A100230295FFF712
:10329000EDFD706010B1012006B070BD4FF0500020
:1032A00080F31188BFF36F8FBFF34F8FFEE700BF2E
:1032B000546D722053766300F1EE100A4FF6FF71E1
:1032C000C0F2C03120EA010040F04070E1EE100A87
:1032D0007047000000000000000001020304060720
:1032E0000809000000000102030400001033000878
:1032F00000000000000000000000000000000000CE
:1033000000020000180000000000000000000000A3
:1033100064656661756C745461736B00546D7251B1
:1033200000000000483300080000002010000000EA
:10333000EC01000858330008100000200050000085
:103340000C02000800000000010000001000000056
:083350000024F400AAAAAAAAB5
:040000050800018965
:00000001FF
