:020000040800F2
:100000004060002099020008952900081526000884
:1000100091290008B5060008DD3000080000000046
:10002000000000000000000000000000112A00088D
:10003000C907000800000000A1290008352A0008AF
:10004000B3020008B3020008B3020008B3020008BC
:10005000B3020008B3020008B3020008B3020008AC
:10006000B3020008B3020008B3020008B30200089C
:10007000B3020008B302000899070008A5070008AA
:10008000B3020008B1070008B3020008B302000879
:10009000B3020008B3020008B3020008B30200086C
:1000A000B3020008B3020008B3020008B30200085C
:1000B000B3020008B3020008B3020008B30200084C
:1000C000B3020008B3020008B3020008B30200083C
:1000D000B3020008B3020008C5300008D1300008A0
:1000E000B3020008B3020008B3020008B30200081C
:1000F000B3020008112B0008B3020008BD07000876
:10010000B3020008B3020008B3020008B3020008FB
:100110007D2C0008892C0008B3020008B3020008F7
:10012000B3020008B3020008B3020008B3020008DB
:10013000B30200080000000000000000B302000845
:10014000B3020008B3020008B3020008B3020008BB
:10015000B3020008B3020008B3020008B3020008AB
:10016000B3020008B3020008B3020008B30200089B
:10017000B3020008B3020008000000000000000005
:10018000B3020008B302000800F002F800F074F8AF
:1001900014A696E8000CB244B344DA4501D100F04D
:1001A0006BF8BAE80F000FA696E83000A5EB04053F
:1001B00004EB0607AAEB0704A7F101074FEA1515A0
:1001C0004FEA3414A4F10104AC4201D300F054F816
:1001D00013F0010F18BFFB1A43F0010300F001F800
:1001E000DBE71847885D0000A85D00000A444FF077
:1001F000000C10F8013B13F0070408BF10F8014B86
:100200001D1108BF10F8015B641E05D010F8016BCA
:10021000641E01F8016BF9D113F0080F1EBF10F82E
:10022000014BAD1C0C1B09D16D1E58BF01F801CB51
:10023000FAD505E014F8016B01F8016B6D1EF9D5D4
:100240009142D6D37047000070470000002300247D
:1002500000250026103A28BF78C1FBD8520728BFD6
:1002600030C148BF0B6070471FB505F02FFD00F08F
:1002700055F91FBD10B510BD00F0A8F91146FFF7E4
:10028000F3FF03F099FA00F0C6F903B4FFF7F2FFA9
:1002900003BC00F091F90000094880470948004775
:1002A000FEE7FEE7FEE7FEE7FEE7FEE7FEE7FEE726
:1002B000FEE7FEE704480549054A064B7047000083
:1002C000FD2A000889010008405A002040600020F3
:1002D000405C0020405C002053EA020C00F0698082
:1002E0002DE9F04B4FF00006002B1FBFB3FA83F54A
:1002F00003FA05F424FA05F65E4012BF1643B2FA7B
:1003000082F502FA05F4C5F120051EBF22FA05FCAC
:1003100044EA0C04203556EA044C4FEA144418BF52
:10032000641C4FF000084FF00009904271EB030C81
:1003300039D3002919BFB1FA81F701FA07F6B0FAEB
:1003400080F700FA07F6C7F120071EBF20FA07FC66
:1003500046EA0C062037B6FBF4FCA7EB0507103F76
:1003600007F01F0BCBF120062CFA06F60CFA0BFB5C
:1003700044BFB3460026202FA4BF5E464FF0000BBB
:100380005BEA060C08BF4FF0010B19EB0B0948EBB9
:100390000608ABFB027C06FB02CC0BFB03CCC01BAC
:1003A00071EB0C01C1E70B46024641464846BDE8E9
:1003B000F08B13B5084318BF4FF0FF300146AFF381
:1003C0000080BDE81C407047032A40F2308010F0E6
:1003D000030C00F0158011F8013BBCF1020F6244E0
:1003E00098BF11F801CB00F8013B38BF11F8013B71
:1003F000A2F1040298BF00F801CB38BF00F8013B1E
:1004000011F0030300F02580083AC0F0088051F88D
:10041000043B083A51F804CBA0E80810F5E7121D98
:100420005CBF51F8043B40F8043BAFF30080D207B7
:1004300024BF11F8013B11F801CB48BF11F8012B83
:1004400024BF00F8013B00F801CB48BF00F8012BA6
:10045000704710B5203AC0F00B80B1E81850A0E802
:100460001850B1E81850A0E81850203ABFF4F5AF82
:100470005FEA027C24BFB1E81850A0E8185044BFDE
:1004800018C918C0BDE810405FEA827C24BF51F84B
:10049000043B40F8043B08BF7047D20728BF31F83F
:1004A000023B48BF11F8012B28BF20F8023B48BF90
:1004B00000F8012B704702F0FF0343EA032242EAEF
:1004C000024200F002B84FF0000200B51346944615
:1004D0009646203922BFA0E80C50A0E80C50B1F19C
:1004E0002001BFF4F7AF090728BFA0E80C5048BFB0
:1004F0000CC05DF804EB890028BF40F8042B08BF4E
:10050000704748BF20F8022B11F0804F18BF00F849
:10051000012B7047704770477047000008487CB552
:100520007844009007487844009C0546019004E018
:100530002046016808448047241DAC42F8D17CBDA8
:10054000685A0000665A000070B50446051F00F0A6
:1005500023F80068002C14BF446870BD002C18BF3D
:10056000AC423CBF20466468F8D301680A18AA422E
:1005700018BF456003D12A68054611440160286808
:100580004119A1421CBF6C6070BD6168696021683F
:100590000844286070BD000000487047B004002087
:1005A00010B5002000F040F8FFF764FEBDE81040F1
:1005B000012000F001B8000001491820ABBEFEE7A1
:1005C0002600020000487047A80400207546FFF787
:1005D000F9FFAE4605006946534620F00700854600
:1005E00018B020B5FFF766FEBDE820404FF00006CA
:1005F0004FF000074FF000084FF0000BAC46ACE89E
:10060000C009ACE8C009ACE8C009ACE8C00921F0F9
:1006100007018D46704710B50446AFF300802046B1
:10062000BDE81040FFF731BE10B500F00BF8BDE893
:10063000104000F001B87047002801D0FFF7BCBFA0
:100640007047000010B5002102A000F013F801204F
:1006500010BD0000534947414252543A2041626E56
:100660006F726D616C207465726D696E6174696F13
:100670006E00000070B505460C460A2000E06D1CB7
:1006800000F011F835B128780028F8D102E0641C98
:1006900000F009F814B120780028F8D1BDE87040C6
:1006A0000A20AFF3008008B569468DF800000320EA
:1006B000ABBE08BDFEE7000091B1F0B545F6FE42C5
:1006C00001F0030C0429C0F600020DD24FF0000E19
:1006D0000021BCF1000F3AD1BDE8F04088B270476C
:1006E000002188B2704700BF01F0FC01C1F1000E8B
:1006F000431C00216FF003041D19EE788FB286EAC7
:10070000172632F816602F7986EA012189B287EA26
:10071000112132F811106F7981EA0626B6B287EA04
:10072000162632F81660AD7986EA012189B285EA8B
:10073000112132F8111004340EEB0405043581EA5E
:100740000621D9D104F1040EBCF1000FC4D010F879
:100750000E408BB284EA132332F81340BCF1010F30
:1007600084EA0121B8D07044437889B283EA112128
:1007700032F81130BCF1020F83EA0421ACD080784A
:1007800089B280EA112032F8100080EA0321BDE826
:10079000F04088B27047000040F60410C2F200003A
:1007A00000F072B840F2E470C2F2000000F06CB8E1
:1007B00040F6A400C2F2000000F066B840F6440023
:1007C000C2F2000000F060B87047000072B600BFCF
:1007D000FEE7000070B5866D044600F009FB94F852
:1007E0003510022928D105462068216C026822F0C4
:1007F00016020260426922F08002426109B9A16CCE
:1008000019B1016821F008010160016821F00101BE
:10081000016000BF20680068C00715D000F0E8FA4A
:10082000401B0628F6D320206065032084F835009D
:10083000002184F8341070BD802060650120002103
:1008400084F8341070BD00BFE06D3F2101FA00F064
:10085000B060012084F835000020002184F83410B5
:1008600070BD000090F83510022909D1052180F8EB
:1008700035100068016821F0010101600020704717
:100880008021416501207047F0B581B00446002009
:10089000009040F26800C2F200000268D4E91660DD
:1008A00048F2B51337680821C1F64E33814039420A
:1008B000A2FB03250CD0226813685B0708D51368D8
:1008C00023F004031360B160616D41F001016165C3
:1008D00001218140394208D022685269120604D5AC
:1008E000B160616D41F002016165042181403942CE
:1008F00008D022681268920704D5B160616D41F09A
:100900000401616510218140394217D020680268D6
:10091000120713D5B16002680168520308D4C905F3
:1009200008D4016821F008010160216C21B905E0BB
:1009300008033FD4216C09B120468847E16D20208F
:1009400000FA01F23A4241D020680368DB063DD547
:10095000B26094F835300268052B1BD122F01602E4
:100960000260426922F080024261226C0AB9A26CE4
:100970001AB1026822F0080202603F208840B0608D
:10098000012084F83500216D0020002984F834000E
:1009900052D157E00168520310D4C90512D401683E
:1009A00021F010010160012084F83500002084F856
:1009B000340007E0A16C0029BED1BFE7080301D4D1
:1009C000616C00E0E16B09B120468847606DC8B3F7
:1009D000606DC0072ED0052084F835002068A90A74
:1009E000026822F001020260009A01328A420092FB
:1009F0001AD80268D20717D0009A01328A420092B0
:100A000012D80268D2070FD0009A01328A420092AF
:100A10000AD80268D20707D0009A01328A420092AF
:100A200002D80268D207DFD1012084F83500002007
:100A300084F83400E16C29B1204601B0BDE8F040F3
:100A4000084700BF01B0F0BD2DE9F041044600F0B9
:100A5000CFF9ECB10546022084F83500002021686A
:100A600084F83400086820F00100086021680868F4
:100A7000C00711D000F0BCF9401B0528F6D90325AA
:100A800020230320636584F83550BDE8F08100BF62
:100A90000120BDE8F08100BF086848F23F02CFF2B4
:100AA0001002D4E9013500EA020C04F10C0898E8C0
:100AB000C10143EA0C032B431843D4E9072E30430A
:100AC00038431043626A40EA0E00042A40EA0803F1
:100AD0001CD1206BD4E90A2E40EA0E0018430860AE
:100AE0004869BEF1000F20F0030040EA020040F028
:100AF000040C11D0B8F5005F36D0B8F1000F45D125
:100B0000022A46D0012A3BD032B942E00B60486944
:100B100020F0070040EA020C01F0F8004AF6AB2290
:100B20001038CAF6AA22A0FB02231A0945F65C7304
:100B3000C1F814C0C0F600039A5C40F2FF335F288E
:100B40004FF03F0021EA030100FA02F088BF0431B0
:100B5000C4E916128860002301250020636584F82B
:100B60003550BDE8F08100BF032AD5D801254023C8
:100B70000120DFE802F0030E030500BF82E700BF9B
:100B8000AEF1C070B0FA80F0400904E0032A04D34B
:100B9000C2D1CEF300600028BED001254023012041
:100BA000636584F83550BDE8F081000090F834C0EA
:100BB000BCF1010F04BF0220704770B54FF0010C6B
:100BC00080F834C0D0F858E090F835C0BCF1010F7F
:100BD00038D14FF0020C80F835C04FF0000CC0F84F
:100BE00054C0D0F800C08468056CC06DDCF80060AB
:100BF000402C26F48026CCF80060CCF804300B465C
:100C000004BF13460A463F2101FA00F0CCF8083031
:100C1000CCF80C20CEF80800DCF8000040F01600FC
:100C2000CCF800002DB1DCF8000040F00800CCF852
:100C30000000DCF8000040F00100CCF800000020CB
:100C400070BD00BF002180F83410022070BD00008C
:100C50002DE9F04F82B000F13E4707F1FF7786059E
:100C600046EA972741F60046C4F20206082243F6F8
:100C7000004EB04208BF0722C4F2010E072F38BF52
:100C80003A46002600274FF00008009209E000BF16
:100C900008F101080237B8F1100F06F1040600F060
:100CA000A3800D68012202FA08F415EA0409EFD0C6
:100CB000D1F804B003220BF0030CACF10105BA40EB
:100CC000012D6FEA020A0FD88268CD6802EA0A0293
:100CD000BD402A4382604268A243CBF3001404FA69
:100CE00008F42243426005E0BCF1030F02D14FF04B
:100CF000030C1EE0C2688C6802EA0A02BC40224370
:100D0000BCF1020FC26014D16FF0030202EA580274
:100D10000244D2F820C006F01C040F230D69A34042
:100D20002CEA0303A5402B431362D1F804B00BF067
:100D3000030C02680CFA07F302EA0A021A431BF4D6
:100D4000403F0260A4D0002243F644030192C4F263
:100D500002031A684FF6084C42F480421A601A687F
:100D6000CFF6FF7C02F480420192019A28F0030240
:100D7000724452F80C3006F00C050F24AC40A3432B
:100D8000009C04FA05F52B4342F80C30DEF80820ED
:100D90004B6842EA090543F60C4CDC0258BF22EAD4
:100DA0000905CEF80850C4F2010CDCF800209C02C2
:100DB00042EA090558BF22EA0905CCF80050DEF8DE
:100DC00004209C0342EA090558BF22EA0905CEF82F
:100DD0000450DEF80020DB0342EA090558BF22EA8E
:100DE0000905CEF8005053E702B0BDE8F08F0000CF
:100DF00044F64050C2F200000068704740F2000024
:100E000044F64051C2F20000C2F2000100780A68C4
:100E1000104408607047000080B543F60040C4F2FB
:100E20000200016841F400710160016841F48061D1
:100E30000160016841F480710160032000F0C6F890
:100E4000052000F005F800F061F8002080BD0000EA
:100E500070B586B0002543F640010195C4F2020149
:100E60000A68044642F480720A60096801A801F425
:100E7000807101910199694600F06AF9049E002E83
:100E800018BF012600F084F94DF68361B040C4F22A
:100E90001B31A0FB01014FF0FF3000EB914140F608
:100EA000AC1042F20002C2F20000C4F2000240F2B2
:100EB000E733C0E90021C0E902530561856100F014
:100EC000FFFB054610B1284606B070BD40F6AC10D9
:100ED000C2F2000000F024FC05460028F3D12D20CA
:100EE00000F036F80F2C0DD82D20214600220025C9
:100EF00000F040F840F20400C2F20000046028460E
:100F000006B070BD0125284606B070BD82B0002035
:100F100043F640010190C4F202014A6842F4804263
:100F20004A604A6802F480420192019A009008687F
:100F3000002240F08050086008680F2100F08050C7
:100F4000009000986FF0010002B000F013B80000AC
:100F5000002848BF704700F01F01012202FA01F18A
:100F60001C2202EAD0004EF20012CEF200028150A2
:100F70007047000010B54EF60C5CCEF2000CDCF8A9
:100F80000030C3F3022E8EF00704042C28BF042483
:100F9000BEF103034FF0FF3E0EFA04F438BF002306
:100FA000A14399400EFA03F39A43114300F00F0254
:100FB00000F160430901043A03F5644362440028E8
:100FC00048BF02F10C03197010BD00004EF60C5121
:100FD000CEF200010A684FF6FF031A4060F30A22BE
:100FE00042F0806040F0FD7008607047002804BF48
:100FF000012070472DE9F04143F60808C4F20208C9
:101000000446D8F8F8030D4600F00700884207D2DE
:1010100088F8F853D8F8F80300F00700A84277D111
:101020002068810717D5410705D5D8F8001041F48D
:10103000E051C8F80010010705D5D8F8001041F4B8
:101040006041C8F80010D8F80010A26821F0F00143
:101050001143C8F80010C00740D1D8F8F80300F0D9
:101060000700A84207D988F8F853D8F8F80300F029
:101070000700A8424CD12068410707D5D8F80010D6
:10108000E26821F4E0511143C8F80010000708D5C8
:10109000D8F80000216920F4604040EAC100C8F897
:1010A000000000F09DF8D8F8001045F6E642C1F3C4
:1010B0000311C0F60002515C40F2680220FA01F10F
:1010C00040F20400C2F200000068C2F200021160A7
:1010D000FFF7BEFE0020BDE8F08100BF6068811E02
:1010E000022907D258F8081C89015CBF0120BDE81D
:1010F000F08111E0012807D158F8081C89035CBF72
:101100000120BDE8F08107E058F8081C890703D4E6
:101110000120BDE8F08100BFD8F8001021F00301E4
:101120000843C8F80000FFF763FE064641F288371F
:10113000D8F80000616800F00C00B0EB810F8CD093
:10114000FFF756FE801BB842F2D90320BDE8F081BC
:101150000F22026043F60802C4F20202136803F091
:1011600003034360136803F0F0038360136803F420
:10117000E053C360D2F800C04FF4E05303EADC034D
:101180000361D2F8F80300F0070008607047000020
:1011900040F2680043F60801C2F20000C4F2020106
:1011A0000068096845F6F642C1F38221C0F60002E4
:1011B000515CC8407047000040F2680043F60801E7
:1011C000C2F20000C4F202010068096845F6F64266
:1011D000C1F34231C0F60002515CC84070470000C4
:1011E00010B543F60404C4F20204606800F00C0178
:1011F00042F200400829C0F2F40007D0042918BFC9
:1012000010BD41F20020C0F27A0010BD216801F04B
:101210003F02216823684902C3F3881106D4A1FB69
:1012200000010023FFF758F807E000BF41F200205B
:10123000C0F27A004843B0FBF2F021680222C1F309
:10124000014102EB4101B0FBF1F010BD002804BFE9
:10125000012070472DE9F04182B00446007843F642
:101260000006C007C4F202060CD0B06800F00C0003
:10127000042840F081803068800303D5606800282E
:1012800000F06A81207880071BD5B06810F00C0F41
:1012900009D0B06800F00C00082840F08780706822
:1012A000400200F183803068800703D5E0680128A0
:1012B00040F052813068216920F0F80040EAC10016
:1012C00030602078000713D4207840072AD4A5691D
:1012D000002D00F03C81B06800F00C00082840F0C0
:1012E000A180012D40F01081012002B0BDE8F08105
:1012F0006069002840F20000C4F2472000F07E80C0
:101300000121C0F8801EFFF773FD0546706F80074E
:10131000DAD4FFF76DFD401B0228F7D9032002B095
:10132000BDE8F081306C5FEAC0080AD4002001906B
:10133000306C40F080503064306C00F08050019090
:10134000019847F20007C4F200073868C00547D487
:10135000386840F480703860FFF74AFD054600BFEA
:101360003868C0053CD4FFF743FD401B0228F7D97D
:10137000032002B0BDE8F081B06800F00C0008283E
:1013800003D1706840023FF576AF6068B0F5803FEA
:1013900007D0B0F5A02F40F09B80306840F480204B
:1013A0003060306840F4803030609BE0E0680028B6
:1013B0005CD00020C4F2472001210160FFF718FD36
:1013C000054600BF306880073FF574AFFFF710FD9A
:1013D000401B0228F6D9032002B0BDE8F08100BF0F
:1013E000A068012805D0052854D1306F40F00400D2
:1013F0003067306F40F00100306755E00021C0F8E1
:10140000801EFFF7F5FC0546706F80077FF55CAF27
:10141000FFF7EEFC401B0228F6D9032002B0BDE81E
:10142000F08100BF0027C4F2472700203866FFF78D
:10143000DFFC022D05460DD13068800140F190801F
:10144000FFF7D6FC401B02284FF00300F4D902B08E
:10145000BDE8F0813068800179D5FFF7C9FC401BF9
:1014600002284FF00300F5D9F1E700BF0020C4F2D5
:10147000472000210160FFF7BBFC0546306880076C
:101480007FF51FAFFFF7B4FC401B02284FF00300AD
:10149000F4D9DCE7316F002821F001013167316FA9
:1014A00021F0040131677DD0FFF7A2FC054641F22F
:1014B000883700BF306F800700F18680FFF798FC07
:1014C000401BB842F6D9032002B0BDE8F08100BF4E
:1014D0003168002821F480313160316821F48021A5
:1014E00031607BD0FFF784FC054600BF3068800385
:1014F0003FF5C8AEFFF77CFC401B6428F6D90320FB
:1015000002B0BDE8F08100BF7068E16900F48002BC
:101510008A4221D1216A00F03F028A421CD147F65B
:10152000C071626A0140B1EB821F15D1A16A4FF60A
:10153000FF73C903994300F44032A1F580318A4218
:101540000AD1E16A00F07060B0EB016F04D10020B5
:1015500002B0BDE8F08100BF012002B0BDE8F0811B
:1015600004F11C052FCD084340EA8210D9034FF641
:10157000FF729143A1F5803140EA05600843706035
:1015800001203866FFF734FC044600BF3068800154
:10159000DDD4FFF72DFC001B02284FF00300F5D926
:1015A00055E700BFFFF724FC054641F2883700BF2E
:1015B000306F800708D5FFF71BFC401BB8424FF087
:1015C0000300F5D943E700BFB8F1000F3FF57FAE48
:1015D000306C20F08050306479E600BFFFF708FCE3
:1015E000054600BF306880037FF54CAEFFF700FC76
:1015F000401B64284FF00300F4D928E7704700002F
:101600007047000090F83C20012A4FF0020254D0AD
:1016100010B580F83D200268D2F804E0D2F808C086
:101620000C682EF07003234341F2FF74C4F20004EF
:10163000A24253600EDC40F2FF73C4F200039A42F0
:1016400016DCB2F1804F2BD040F20043C4F200030D
:1016500024E000BF40F2FF33C4F201039A4213DCDE
:1016600041F60003C4F200039A4219D0002313E0AC
:1016700040F60003C4F200039A4211D040F6004342
:10168000C4F200030AE000BF44F20003C4F2010305
:101690009A4205D040F20043C4F201039A4204D1B9
:1016A00049682CF08003194391600121002280F8E1
:1016B0003D1080F83C20BDE8104010467047000007
:1016C000002804BF0120704710B5044690F83D0083
:1016D00028B9002084F83C00204600F01FF80220C2
:1016E00084F83D002068211D01F022FA012084F8D1
:1016F000460084F83E0084F83F0084F8400084F8F7
:10170000410084F8420084F8430084F8440084F8DF
:10171000450084F83D00002010BD00007047000027
:1017200090F83D1001291CBF01207047022180F86C
:101730003D10006841F2FF72C168C4F2000290429D
:1017400041F00101C1600DDC40F2FF71C4F2000103
:10175000884215DCB0F1804F2AD040F20041C4F23B
:10176000000123E040F2FF31C4F20101884213DCA2
:1017700041F60001C4F20001884219D0002113E0B3
:1017800040F60001C4F20001884211D040F6004149
:10179000C4F200010AE000BF44F20001C4F20101FA
:1017A000884205D040F20041C4F20101884206D1CE
:1017B000816801F00701062904BF00207047016815
:1017C00041F001010160002070470000002804BFC3
:1017D000012070472DE9F047044690F83D000D4682
:1017E00028B9002084F83C00204600F049F8022087
:1017F00084F83D00206844F20702816891438160CB
:10180000211D01F095F920684FF6FF788168826903
:10181000D0F820C0D5E9003ED5E9026A43EA0109C3
:10182000AB6922EA080246EA03234FF6FC46B343BB
:10183000D5E9076742EA0A0229691A4342EA062201
:1018400042EA01112CF0AA026B6942EA0E0241EA57
:10185000073142EA0312C0F8089081610262012058
:1018600084F8460084F83E0084F83F0084F8420083
:1018700084F8430084F83D000020BDE8F0870000B4
:1018800080B586B000684FF6FF71C4F2000188424F
:101890004FF000010591CDE90311CDE9011137DCCD
:1018A00040F20041C4F2000188425FD040F60001DE
:1018B000C4F20001884240F0B280002043F63001BB
:1018C0000090C4F202010A6942F004020A610A6946
:1018D00002F004020092009A00900A6842F00202AC
:1018E0000A60096801F0020100910099C02101918C
:1018F0000221CDE90210CDE904010020C4F202006A
:1019000000F5806001A9FFF7A3F906B080BD00BF14
:1019100040F20041C4F2010188424FD00021C4F2DC
:10192000010188427BD1002043F630010090C4F2CF
:1019300002014A6942F001024A614A6902F0010269
:101940000092009A00900A6842F001020A60096859
:1019500001F00101009100994FF4407101910221C1
:10196000CDE902100490012005901FE0002043F60D
:1019700030010090C4F202010A6942F002020A61D9
:101980000A6902F002020092009A00900A6842F08E
:1019900001020A60096801F0010100910099C0216B
:1019A00001910221CDE90210CDE904010020C4F229
:1019B000020001A9FFF74CF906B080BD002043F6F4
:1019C00030010090C4F202014A6942F002024A6109
:1019D0004A6902F002020092009A00900A6842F0FE
:1019E00004020A60096801F0040100910099C02115
:1019F00001910221CDE902100490032005900020FE
:101A0000C4F2020000F5006001A9FFF721F92D20C2
:101A100005210022FFF7AEFA2D20FFF799FA06B054
:101A200080BD00007047000070B504460068C568BE
:101A30000669B10716D515F0020113D06FF0020147
:101A40000161012121778069800703D02046FFF7DB
:101A5000E9FF05E0204600F08FF8204600F08EF800
:101A600000202077700719D515F0040016D02068E3
:101A70006FF00401016102212177806910F4407F39
:101A800004D02046FFF7CEFF06E000BF204600F05E
:101A900073F8204600F072F800202077300717D541
:101AA00015F0080014D020686FF0080101610421CE
:101AB0002177C069800703D02046FFF7B3FF05E018
:101AC000204600F059F8204600F058F80020207712
:101AD000F00619D515F0100016D020686FF010012F
:101AE000016108212177C06910F4407F04D02046AD
:101AF000FFF798FF06E000BF204600F03DF82046C3
:101B000000F03CF800202077F00718BF15F0010026
:101B100002D1300609D412E020686FF001010161A2
:101B2000204600F02DF8300609D515F0800006D0CB
:101B300020686FF0800101612046FFF75FFD7006AD
:101B400009D515F0400006D020686FF04001016112
:101B5000204600F01FF8B00658BF70BD15F02000F9
:101B600008D021686FF0200220460A61BDE870406D
:101B7000FFF746BD70BD00007047000070470000D1
:101B8000006842F20001C4F20001884218BF7047A9
:101B9000FFF734B97047000070470000704700003D
:101BA000B0B582B0044600680168C368426901F0BC
:101BB0002F05202D03F0200506D12DB1204602B0BF
:101BC000BDE8B04001F086B95FEA017C1EBF02F0BB
:101BD000010E03F4907212EB0E0243D1226BCD067C
:101BE00018D5012A16D113F0100213D0002101914B
:101BF00001680191416801910199406940063BD417
:101C0000A08DE18DE28D002A18BF884240F0F2815C
:101C100002B0B0BD0A0640F1E78013F0800200F088
:101C2000E38094F841102129F2D1A168B1F5805FD9
:101C300003D12169002900F06382216A4A1C2262D3
:101C400009784160E18C01390A04E184E0D1C1687E
:101C500021F08001C160C16841F04001C16002B063
:101C6000B0BD00BFCA0718BF13F4807240F0D08027
:101C70004A0700F1D380D8E0E06B016849688AB276
:101C8000002AC5D0A38D9A42C2D2E185C069B0F5C1
:101C9000807F00F09D80206850E8030F216820F4C9
:101CA000807041E80302DAB1206850E8030F216830
:101CB00020F4807041E8030292B1206850E8030FDD
:101CC000216820F4807041E803024AB1206850E89E
:101CD000030F216820F4807041E80302002ADAD162
:101CE000206850E8050F216820F0010041E8050256
:101CF000BAB3206850E8050F216820F0010041E8E0
:101D0000050272B3206850E8050F216820F0010039
:101D100041E805022AB3206850E8050F216820F049
:101D2000010041E80502002ADAD11AE0206850E8F3
:101D3000050F216820F0400041E80502DAB1206873
:101D400050E8050F216820F0400041E8050292B1FB
:101D5000206850E8050F216820F0400041E80502A6
:101D60004AB1206850E8050F216820F0400041E8A2
:101D70000502002ADAD1202084F8420000202063E6
:101D8000206850E8030F216820F0100041E80302AA
:101D9000DAB1206850E8030F216820F0100041E814
:101DA000030292B1206850E8030F216820F0100070
:101DB00041E803024AB1206850E8030F216820F08F
:101DC000100041E80302002ADAD1E06BFEF702FDC1
:101DD00002206063A08DE18D401A81B2204602B0DE
:101DE000BDE8B040FFF7D8BE49067FF511AF13F04C
:101DF00040013FF40DAFC16821F04001C1602021D6
:101E0000204684F8411002B0BDE8B04000F0FEBBAF
:101E1000626C42F0010262644A0706D5BEF1000F0F
:101E200003D0626C42F0020262648A0706D5BEF1FA
:101E3000000F03D0626C42F004026264BCF1000F38
:101E400006D55EEA050203D0626C42F008026264C5
:101E5000626C002A3FF4DCAE890604D51DB1204631
:101E600001F038F820684069616C00F0400001F032
:101E70000801401800F0B680206850E8030F216880
:101E800020F4907041E80302BAB3206850E8030FD1
:101E9000216820F4907041E8030272B3206850E892
:101EA000030F216820F4907041E803022AB32068F0
:101EB00050E8030F216820F4907041E80302002AE3
:101EC000DAD11AE0206850E8050F216820F00100FF
:101ED00041E80502DAB1206850E8050F216820F0DA
:101EE000010041E8050292B1206850E8050F216821
:101EF00020F0010041E805024AB1206850E8050FD2
:101F0000216820F0010041E80502002ADAD1206BA7
:101F1000012824D1206850E8030F216820F0100028
:101F200041E80302DAB1206850E8030F216820F08D
:101F3000100041E8030292B1206850E8030F2168C5
:101F400020F0100041E803024AB1206850E8030F76
:101F5000216820F0100041E80302002ADAD1202095
:101F600084F842000020206320684069400640F168
:101F7000C180206850E8050F216820F0400041E84A
:101F80000502DAB1206850E8050F216820F0400012
:101F900041E8050292B1206850E8050F216820F061
:101FA000400041E805024AB1206850E8050F216869
:101FB00020F0400041E80502002ADAD1E06B002859
:101FC00000F0988042F69541C0F600010165FEF7E9
:101FD00049FC00283FF41CAEE06B016D02B0BDE887
:101FE000B04008472046FFF7D9FD0020606402B0EA
:101FF000B0BD00BF401A00BF216851E8031F22682E
:1020000021F4907142E80313BBB3216851E8031F28
:10201000226821F4907142E8031373B3216851E8F8
:10202000031F226821F4907142E803132BB3216847
:1020300051E8031F226821F4907142E80313002B3A
:10204000DAD11AE0216851E8051F226821F0010168
:1020500042E80513DBB1216851E8051F226821F031
:10206000010142E8051393B1216851E8051F226878
:1020700021F0010142E805134BB1216851E8051F29
:10208000226821F0010142E80513002BDAD120215A
:1020900084F8421000212163216851E8031F22685F
:1020A00021F0100142E80313DBB1216851E8031F5E
:1020B000226821F0100142E8031393B1216851E82E
:1020C000031F226821F0100142E803134BB121687D
:1020D00051E8031F226821F0100142E80313002B8E
:1020E000DAD1022281B22046626302B0BDE8B0407C
:1020F000FFF752BD204602B0BDE8B040FFF74EBD2D
:10210000216A31F8022B6FF35F224260216299E568
:10211000002804BF0120704710B5044690F8410024
:1021200028B9002084F84000204600F021F824203F
:1021300084F841002068C16821F40051C160204644
:1021400000F048FF2068016921F490410161416974
:1021500021F02A014161C16841F40051C1600020B1
:102160002021606484F8411084F84210606310BD3F
:102170002DE9F04786B004460068A0F18041A1F542
:102180008841800540EA912000210328CDE904110F
:10219000CDE90211019100F26181DFE800F0035105
:1021A000A1EF00BF002643F630000096C4F2020003
:1021B000016941F400310161016901F400310091CC
:1021C00000990096016841F001010160006801A9D1
:1021D00000F00100009000980C2001900220CDE951
:1021E000020603200490072005900020C4F202009C
:1021F000FEF72EFD46F25800C4F2020040F6A40598
:102200004830C2F200054FF00061402285E84700E7
:102210004FF480304FF48063C5E908062846C5E9CD
:102220000436C5E90666FEF70FFC002818BFFEF766
:10223000CDFAA563AC63262004210022262408E100
:10224000002643F630000096C4F20200016941F412
:1022500080210161016901F48021009100990096BB
:10226000016841F002010160006801A900F002006C
:10227000009000984FF4406001900220CDE90206E2
:1022800003200490072005900020C4F2020000F50E
:102290008060FEF7DDFC40F6041546F25800C2F2FD
:1022A0000005C4F202004FF00061402285E84700BB
:1022B0004FF480304FF48063C5E908062846C5E92D
:1022C0000436C5E90666FEF7BFFB002818BFFEF717
:1022D0007DFAA563AC632720042100222724B8E0FF
:1022E000002643F630000096C4F20200016941F472
:1022F00000210161016901F400210091009900961B
:10230000016841F0010101600068022100F0010054
:102310000090009803200190049008200590002070
:10232000CDE90216C4F2020001A9FEF791FC46F2C3
:102330005800C4F2020040F2E4751830C2F2000501
:102340004FF00061402285E847004FF480304FF4A1
:102350008063C5E908062846C5E90436C5E906666E
:10236000FEF772FB002818BFFEF730FAA563AC63D6
:1023700034200521002234246BE000BF002643F600
:1023800030000096C4F202000169002741F4801178
:1023900001610169C4F2020701F480110091009902
:1023A0000096016801AD41F00401016001684FF041
:1023B000020801F0040100910099009601684FF0B5
:1023C000030941F00801016000684FF0080A00F0BD
:1023D0000800009000984FF48050019007F50060CD
:1023E0002946CDE90286CDF81090CDF814A0FEF76D
:1023F0002FFC0420CDE9010803A880E8400607F57A
:1024000040602946FEF724FC46F25800C4F2020060
:1024100040F644056030C2F200054FF000614022F2
:1024200085E847004FF480304FF48063C5E9080623
:102430002846C5E90436C5E90666FEF705FB00280F
:1024400018BFFEF7C3F9A563AC6335200521002250
:102450003524FEF78FFD2046FEF77AFD06B0BDE875
:10246000F087000090F84230202B07D100294FF070
:10247000010318BF002A05D11846704702231846E9
:10248000704700BF00230363816222218285C285D9
:10249000436480F842100169006819B1C16841F4D1
:1024A0008071C160416941F001014161C16841F041
:1024B0002001C1601846704770B540F2E455C2F281
:1024C00000052968012932DB044605F110064A1E81
:1024D00056F80C0C4368A3422AD0B2B156F8080C47
:1024E0004368A34226D0012A0FD056F8040C436853
:1024F000A34221D0022A08D030684368A3421CD0EE
:10250000043A501C06F11006E2D10129B8BF70BD93
:10251000002600BF05EB86004068012200F108019B
:102520002046FFF79FFF286801368642F2DB70BD28
:102530000C3E02E0083E00E0043E0268017A1268A8
:1025400090473068012200F108012046BDE8704044
:10255000FFF788BFB0B5044690F8410020281CBFA3
:102560000220B0BD00294FF001004DD0002A1346D3
:1025700008BFB0BD4FF0000C21202162A384E3848A
:10258000C4F844C084F84100A06B42F61D6E42F6C8
:10259000CD652268C0F6000EC0F60005C0E90FE563
:1025A00042F6A145C0F600050432C0E9135CFEF70F
:1025B000FDFA20686FF04001016000BF206850E81C
:1025C000050F216840F0800041E80502DAB120687B
:1025D00050E8050F216840F0800041E8050292B103
:1025E000206850E8050F216840F0800041E80502AE
:1025F0004AB1206850E8050F216840F0800041E8AA
:102600000502002ADAD10020B0BD000070470000AA
:1026100070470000FEE7000080B582B00020019006
:1026200043F63000C4F202000168002241F40011B8
:1026300001600068052100F40010019001980E204F
:10264000FEF798FC0E20FEF783FC0F2005210022E8
:10265000FEF790FC0F20FEF77BFC112005210022E5
:10266000FEF788FC1120FEF773FC2F2005210022C5
:10267000FEF780FC2F2002B0BDE88040FEF768BC6A
:1026800081B0002143F630000091C4F202000268DC
:1026900042F080020260026802F080020092009A1A
:1026A0000091026842F001020260026802F0010239
:1026B0000092009A0091026842F0020202600268F1
:1026C00002F002020092009A0091026842F00402B5
:1026D0000260026802F004020092009A0091016810
:1026E00041F008010160006800F0080000900098C7
:1026F00001B0704710B58CB040F664100021002482
:10270000C2F20000C4F20101C0E900140321CDE9C6
:10271000031401214FF6FF72CDE90514CDE9091428
:1027200003A9CDE90044C0E90242C0E90444846140
:10273000CDE907440B94FFF749F8002818BFFEF7CE
:1027400045F840F66410C2F200006946CDE9004445
:10275000FEF758FF002818BFFEF738F80CB010BD80
:1027600080B58CB040F6F41040F200420021C2F275
:102770000000C4F20002C0E9002103224FF6FF73FB
:10278000CDE903210122CDE90011C0E90213016165
:102790008161CDE90521CDE90711CDE909210B9131
:1027A00003A9FFF713F8002818BFFEF70FF840F64B
:1027B000F410C2F200006946FEF724FF002818BF9B
:1027C000FEF704F80CB080BD80B58CB040F63C201C
:1027D00040F600020021C2F20000C4F20002C0E98B
:1027E000002103224FF6FF73CDE903210122CDE939
:1027F0000011C0E9021301618161CDE90521CDE934
:102800000711CDE909210B9103A9FEF7DFFF00288D
:1028100018BFFDF7DBFF40F63C20C2F2000069461E
:10282000FEF7F0FE002818BFFDF7D0FF0CB080BD0A
:1028300010B58CB040F6842040F200410024C2F272
:102840000000C4F20101C0E900140321CDE9031422
:1028500001214FF6FF72CDE90514CDE9091403A952
:10286000CDE90044C0E90242C0E904448461CDE9F5
:1028700007440B94FEF7AAFF002818BFFDF7A6FF38
:1028800040F68420C2F200006946CDE90044FEF71C
:10289000B9FE002818BFFDF799FF0CB010BD00006D
:1028A00080B540F65C3044F60041C2F20000C4F24C
:1028B000000100234FF00C0C4FF4E13280E80E00D1
:1028C000C0E90333C0E905C3C361FFF721FC002859
:1028D00008BF80BDBDE88040FDF778BF80B540F6F9
:1028E000A43045F20001C2F20000C4F2000100234E
:1028F0004FF00C0C4FF4E13280E80E00C0E90333D6
:10290000C0E905C3C361FFF703FC002808BF80BD11
:10291000BDE88040FDF75ABF80B540F6CC2044F2B8
:102920000041C2F20000C4F2000100234FF00C0C81
:102930004FF4E13280E80E00C0E90333C0E905C37B
:10294000C361FFF7E5FB002808BF80BDBDE88040FC
:10295000FDF73CBF80B540F6143044F60001C2F2EA
:102960000000C4F2000100234FF00C0C4FF4E132E0
:1029700080E80E00C0E90333C0E905C3C361FFF777
:10298000C7FB002808BF80BDBDE88040FDF71EBF23
:10299000FEE70000FEE7000000000000000000006D
:1029A000EFF30980BFF36F8F154B1A681EF0100FFD
:1029B00008BF20ED108A20E9F04F10602DE90900D2
:1029C0004FF0500080F31188BFF34F8FBFF36F8F2C
:1029D00002F05EF94FF0000080F31188BDE80900B5
:1029E00019680868B0E8F04F1EF0100F08BFB0EC8F
:1029F000108A80F30988BFF36F8F704700BF00BF54
:102A00000805002000000000000000000000000099
:102A1000074B19680868B0E8F04F80F30988BFF3E6
:102A20006F8F4FF0000080F31188704700BF00BF28
:102A30000805002080B54EF21000CEF200000068BC
:102A400002F05AFF012808BF80BDBDE8804002F0B7
:102A500041BA0000B0B592B0002443F64000CDE981
:102A60000A44CDE908440594CDE90344CDE9014485
:102A70000094C4F202000168022541F08051016017
:102A8000006800F080500090009847F20000009429
:102A9000C4F20000016841F4804101600068A8218F
:102AA00000F4804000900098012006904FF48030A0
:102AB00007904FF480000D9004200E90119006A80E
:102AC0000C95CDE90F15FEF7C1FB18B172B600BF2A
:102AD000FEE700BF0F20CDE901054FF4A0500490A0
:102AE0004FF48050059001A805210394FEF77EFA6B
:102AF00010B172B6FEE700BF12B0B0BD4EF68850FE
:102B0000CEF20000016841F47001016070470000DE
:102B100080B540F68420C2F20000FEF785FF40F643
:102B2000AC10C2F20000BDE88040FEF77DBF00009F
:102B300010B540F6FF3E0368C4F2000E40F2004CB0
:102B40007045C4F2010C27DCB0F1804F31D040F267
:102B50000042C4F2000290422BD040F60002C4F2C0
:102B60000002904225D041F6FF72C4F2000290426A
:102B700029DC70453CDCB0F1804F5FD040F2004270
:102B8000C4F20002904259D040F60002C4F20002A2
:102B9000904253D056E000BF40F60042C4F200021B
:102BA000904206D0604504D00022C4F20102904257
:102BB000D9D14A6823F07003134341F6FF72C4F27F
:102BC00000029042D5DD43F6FF72C4F2010290424A
:102BD00022DC42F20002C4F2000290422ED0002217
:102BE000C4F20102904229D0604527D02AE000BFFC
:102BF00040F60042C4F2000290421FD041F60002AB
:102C0000C4F20002904219D041F60042C4F2000220
:102C1000904213D016E000BF44F20002C4F2010259
:102C200090420BD044F60002C4F20102904205D05B
:102C300044F20042C4F20102904203D1CA6823F474
:102C40004073134323F080024B69D1F800E08C6895
:102C50001A430260C46240F48062C0F828E0624512
:102C600004BF09690163012141610169C90708BF06
:102C700010BD016921F00101016110BD40F65C3019
:102C8000C2F20000FEF78CBF40F6A430C2F2000092
:102C9000FEF786BF806B0021C185C184FEF77EBF31
:102CA000806B01684A6990F84130212B2DD112F0D8
:102CB00080022AD00021C184016851E8031F026804
:102CC00021F0C00142E80313DBB1016851E8031FA2
:102CD000026821F0C00142E8031393B1016851E892
:102CE000031F026821F0C00142E803134BB10168E1
:102CF00051E8031F026821F0C00142E80313002BD2
:102D0000DAD1202180F841100168496990F8422009
:102D1000222A40F07D8011F0400179D00021C18548
:102D2000016851E8031F026821F4907142E803131F
:102D3000BBB3016851E8031F026821F4907142E8B7
:102D4000031373B3016851E8031F026821F4907103
:102D500042E803132BB3016851E8031F026821F412
:102D6000907142E80313002BDAD11AE0016851E8B0
:102D7000051F026821F0010142E80513DBB101687B
:102D800051E8051F026821F0010142E8051393B1E3
:102D9000016851E8051F026821F0010142E80513AE
:102DA0004BB1016851E8051F026821F0010142E8BA
:102DB0000513002BDAD1016B012924D1016851E8F8
:102DC000031F026821F0100142E80313DBB1016820
:102DD00051E8031F026821F0100142E8031393B188
:102DE000016851E8031F026821F0100142E8031353
:102DF0004BB1016851E8031F026821F0100142E85D
:102E00000313002BDAD1202180F842100021016346
:102E1000416C41F010014164FEF7C0BE0168806B57
:102E20000968C90548BFFFF7F1BB0021C18400BF95
:102E3000016851E8051F026821F0800142E805138E
:102E400083B3016851E8051F026821F0800142E860
:102E500005133BB3016851E8051F026821F08001AA
:102E600042E80513F3B1016851E8051F026821F03B
:102E7000800142E80513002BDAD113E0016851E824
:102E8000031F026841F0400142E80313002B08BF12
:102E90007047016851E8031F026841F0400142E8B1
:102EA000031393B1016851E8031F026841F0400128
:102EB00042E803134BB1016851E8031F026841F077
:102EC000400142E80313002BD8D17047806BFFF715
:102ED0009FBB000081B090F84210222921D1836865
:102EE0000246B3F5805F09D152F8281F52F8183C0A
:102EF000002B63D003685B680AE000BF52F8281F0C
:102F000013B90369002BF5D003685B6803F07F03F6
:102F10000B70116801311160C18D01390A04C1853E
:102F200002D001B0704700BF0168CA6822F02002D9
:102F3000CA60CA6822F48072CA604A6922F001023B
:102F40004A61202180F8421000214163026B012A6E
:102F50003CD10163016851E8031F026821F01001B0
:102F600042E80313DBB1016851E8031F026821F056
:102F7000100142E8031393B1016851E8031F02688E
:102F800021F0100142E803134BB1016851E8031F1F
:102F9000026821F0100142E80313002BDAD1016826
:102FA0000A68D20606D5002200920A680092496893
:102FB00000910099818D01B0FEF7EEBD0268526864
:102FC0006FF35F2221F8022B8162A5E701B0FFF7C2
:102FD00073BA000010B504460068D4E902C2236940
:102FE000016921F4405111430161626943EA0C0116
:102FF000E3691143C268194349F20C639A431143D0
:10300000C1604169A26921F4407141F2004311435A
:1030100040F48062C4F201039A42416102D1FEF79A
:10302000CBF801E0FEF7B4F8E16963681922B1F565
:10303000004FA0FB020123D15A00DB0FFDF74CF932
:1030400048F21F51C5F2EB11A0FB01235A094FF6BC
:103050009C73C0F6FF7303F1805302FB030032231D
:1030600003EBC000A0FB01014FF4F87000EA11105F
:1030700000EB0210C1F3421108442168886010BDC2
:103080009A009B0FFDF728F948F21F51C5F2EB118A
:10309000A0FB01235A094FF69C73C0F6FF7302FB95
:1030A0000300322303EB0010A0FB0101F02000EA33
:1030B000511000EB0210C1F34311084421688860ED
:1030C00010BD000040F6CC20C2F20000FEF768BD43
:1030D00040F61430C2F20000FEF762BDFEE70000C9
:1030E00080B541F23C10C2F2000000F01BFA40F241
:1030F0003C6040F6CC21C2F20000C2F20001002286
:10310000BDE8804000F06EB9F0B5A3B06D4604464E
:10311000002005F148068DF800008DF80300ADF899
:10312000040030464021FDF7CEF9D4F83801294695
:103130000022002300F0A0FB10B123B0F0BD00BFBF
:103140004FF6FC309DF80070A4F83C019DF8030098
:1031500004F59E7584F83E0184F83F712FB104F5A3
:10316000A07031463A46FDF774F994F8850138B1FC
:1031700030463946FDF7A0FA9DF8007001E000BF27
:103180000020E119ADF8880081F84001000A81F8BB
:1031900041014FF6FD60A1F84201606807F10802A5
:1031A0002946FFF7D7F923B0F0BD00002DE9F04321
:1031B00081B0044690F88C01082800F20D81DFE808
:1031C00000F005111D2531454D556100FC2956D1F2
:1031D000012084F88C01FC2084F8210001B0BDE8B6
:1031E000F08300BFFB2940F0F780022084F88C01B7
:1031F000FB2084F8220001B0BDE8F08384F823109E
:10320000032084F88C0101B0BDE8F083002084F82D
:10321000201084F88401042084F88C0101B0BDE8FA
:10322000F08300BF204610F8202F90F864315F1C17
:10323000FEB280F864711844964281711FD3052054
:1032400084F88C0101B0BDE8F08300BF84F8A810B9
:10325000062084F88C0101B0BDE8F08384F8A91041
:10326000072084F88C0101B0BDE8F083FD2940F00F
:10327000B380082084F88C01FD2084F8AA0001B0F6
:10328000BDE8F083FE2940F0A78094F8852194F8EA
:103290002010FE20002A84F8AB0058D004F126004C
:1032A000FDF70AFAB4F8A810A084884249D194F82E
:1032B000201021B3042901F0030001D2002109E00C
:1032C00001F0FC0200216318D3F8267004318A4211
:1032D0009F66F8D198B1631893F8263004F168021C
:1032E000012853540BD04B1CE71897F8267002287E
:1032F000D75404D0881C211891F826101154D4F802
:10330000881101291ADB04F1680904F5C87800273F
:1033100003E000BF01378F4210DA58F82700002879
:10332000F8D0016894F8206094F823300D6849467D
:103330004A460096A847D4F88811EBE7002084F8A5
:103340008C0194F88501002846D194F8201029B307
:10335000042901F0030001D200210AE001F0FC027F
:10336000002100BF6318D3F8267004318A429F669B
:10337000F8D198B1631893F8263004F16802012857
:1033800053540BD04B1CE71897F826700228D754DB
:1033900004D0881C211891F826101154D4F88811F3
:1033A000012919DB04F1680904F5C878002702E057
:1033B00001378F4210DA58F827000028F8D001684A
:1033C00094F8206094F823300D6849464A460096E8
:1033D000A847D4F88811EBE7002084F88C0101B0ED
:1033E000BDE8F08370B51546044600F01BF93020A7
:1033F000207445F60070C0F6000000F1080120308E
:1034000000262160E06004F168004021C4F81160EA
:10341000C4F81560C4F81960E66184F8206084F887
:103420002360A684FDF74FF804F1F400402184F8EE
:10343000AC6084F8AF60A4F8B060FDF744F80520F4
:103440008C21002284F8846184F88551C4F8886155
:1034500084F88C6184F8A46100F054FA0146204697
:10346000C4F8381170BD00004FF4D47100F08BB96E
:103470007047000040F26C01C2F200016C2200FBB8
:10348000021000F1640400F1100500F1140602E0DE
:10349000286800F0AFF921680129F9DB002702E074
:1034A00001378F42F4DA56F827000028F8D0016877
:1034B000096888472168F3E7092988BF7047B0B5D4
:1034C0008AB040F26C0CC2F2000C6C2301FB03C505
:1034D0002C4654F8643F132B1FDC05EB830042613C
:1034E0002868C0B96C2001FB00C00022CDE9082289
:1034F000CDE90422CDE90222021D0192826EC0684C
:10350000CDE9062043F27540C0F6000001AA00F0A4
:1035100093FA23682860581C20600AB0BDE8B040C8
:103520007047000040F26C01C2F2000143F25F12EA
:10353000A1F8742043F25F22A1F8E02043F25F3249
:10354000A1F84C2143F25F42A1F8B82143F25F5247
:10355000A1F8242243F25F62A1F8902243F25F7245
:1035600046F2741CA1F8FC2243F65F02C6F6733CD7
:1035700043F25F03A1F8682343F65F12C1F804C069
:103580000B810023C1F870C0C1F8DCC0C1F848C18C
:10359000C1F8B4C1C1F820C2C1F88CC2C1F8F8C2E8
:1035A000C1F864C3C1F8D0C3A1F8D42330224FF0CE
:1035B000010C8B7281F8763081F8E23081F84E315F
:1035C00081F8BA3181F8263281F8923281F8FE32E0
:1035D00081F86A3381F8D633C1E9032C2022022313
:1035E000C1E91E230523C1E939231822C1E9542367
:1035F0000A23C1E96F231022C1E98A230F23C1E9FD
:10360000A5230822C1E9C0231423C1E9DB23C1E9B2
:10361000F6C37047426800F1080110460122FEF728
:1036200021BF000080B540F2E45EC2F2000E45F614
:103630002C7CDEF80030C0F6000C0CF10802092BDF
:10364000C0E90021C8BF80BD591CCEF800100EEBA8
:103650008301486080BD00002DE9F041D0F804E00E
:103660008C469800714601F8AC0F8EF8AFC0E3B3FA
:10367000042B03F0030C01D200231DE06FF00C04B7
:1036800002F1080004EA83080025002356590EEBD6
:103690000507C7F8F460461956F8046C5419C7F8C2
:1036A000F86046591035C7F8FC60E468A84503F196
:1036B0000403C7F80041E9D1BCF1000F15D052F85E
:1036C00023400EF1F400BCF1010F40F823400CD070
:1036D0005C1C52F82450BCF1020F40F8245004D076
:1036E000023352F8232040F82320DEF8380100226C
:1036F000002300F04DF9B0FA80F04009BDE8F081F8
:10370000D1F888214160042AC8BF704701EB8203C9
:10371000C3F89001501CC1F8880170477047000041
:1037200010B50446FDF764FBE16AA062411A00EEA1
:10373000101AB8EE400A84ED070A18BFE06204F1DF
:10374000140004F1200201210123BDE81040FFF71D
:1037500083BF00001168016270470000302100F053
:1037600012B800000C38FFF7CFBC00000C384FF443
:10377000D47100F008B80000704700001168C16003
:103780007047FCF7E1BEFFF7FCBF000001A000F0AE
:1037900011F800BF50757265207669727475616C9E
:1037A0002066756E6374696F6E2063616C6C65640E
:1037B00021000000FCF7F4FEFDF72EFBFFF74AF9AD
:1037C000FEF75EFFFEF728FFFEF794FFFEF7C8FF47
:1037D000FEF7FAFFFFF72CF8FFF762F8FFF77EF825
:1037E000FFF79AF8FFF7B6F800F014F800F076F952
:1037F000FEE70000EFF3058100291CBF6FF0050014
:103800007047002804BF0020704780B501F0F6F82B
:10381000002080BDEFF3058000281CBF6FF005007D
:10382000704740F23860C2F200000168002911BF01
:103830004FF0FF30012101600020704710B5EFF319
:10384000058000281CBF6FF0050010BD40F23860F5
:10385000C2F20000016801291CBF4FF0FF3010BD0B
:103860004EF61F51CEF2000100240C7002210160BF
:1038700001F08EF9204610BD10B582B01C46B0FA9A
:1038800080F3B1FA81F25B095209EFF3058CBCF1C8
:10389000000F42EA03021BD0002C18BF0124224370
:1038A00017D10022019201AA01F004FF01281DD1C5
:1038B0000198C0B14EF60450CEF200004FF0805196
:1038C0000160BFF34F8FBFF36F8F002002B010BDB8
:1038D00022B16FF0030002B010BD00BF224601F01C
:1038E000C9FD012806D1002002B010BD6FF0020012
:1038F00002B010BD6FF00100002C08BF6FF0020095
:1039000002B010BD70B582B0154600294FF000041A
:10391000EFF3058218BF002802D1204602B070BD27
:10392000002AFAD1B5B1D5E902320BB3502AF4D34B
:103930002A69002AF1D06E6901FB00F4A6424FF01B
:103940000004EAD3009401F021FB06460028E4D0ED
:103950002C6805E0002201F0D5FA06460028DCD0EC
:103960003046214600F0C8FF3446204602B070BD04
:10397000002AD2D12A69002ACFD16A69002ACCD183
:10398000002201F0BFFA06460028E1D1C5E7000099
:10399000B0B582B01C46B0FA80F3B1FA81F5EFF30E
:1039A00005825B096D09002A43EA05020AD0002C52
:1039B00018BF012422430BD06FF00305284602B044
:1039C000B0BD00BFF2B16FF00305284602B0B0BD34
:1039D0000022019201AA002301F0A6FC012821D1B6
:1039E000019828B34EF60450CEF200004FF08051FB
:1039F0000160BFF34F8FBFF36F8F0025284602B0E1
:103A0000B0BD00BF22460023002501F02FFB012896
:103A1000D4D06FF00105002C08BF6FF002052846D6
:103A200002B0B0BD6FF00205284602B0B0BD00BFC5
:103A30000025284602B0B0BD2DE9F04184B00B4608
:103A400000240394EFF30581E8B3E1BB62B3D2F83D
:103A500018E0BEF1000F08BF4FF0180EBEF1380F8E
:103A600031D81179C9072ED15769D2E902864FEAB8
:103A7000970C1168002F654608BF4FF48075B8F1A8
:103A8000000F25D05C2E1ED31269002A18BF002F0C
:103A900019D0CDE900E26246CDF8088001F0F0FED1
:103AA00004B0BDE8F08100BF4FF480754FF0180EF0
:103AB000002103AFAAB2CDE900E701F0B1FE0399FE
:103AC000012808BF0C46204604B0BDE8F08100BFC5
:103AD000002EF8D11269002AF5D1EAE72DE9F0416C
:103AE00040F23C64C2F200042046FFF793FD41F22D
:103AF0003C1540F20806C2F20005C2F20006284654
:103B000000213246FFF7D8FC06F130022846012199
:103B10004FF00108FFF7D0FC04F10C0728460521FF
:103B20003A46FFF7C9FC06F114002146FFF7E8FD0D
:103B3000182084F8AC00284608213A4684F8AF8063
:103B4000FFF7BAFCBDE8F041FFF778BE2DE9F04180
:103B5000044600F0E1FD40F20856C2F20006F068AB
:103B600040F6DC450130F0603068C2F2000558B123
:103B70003069002840F007813068E16AC06A8842F5
:103B800098BF3460FFE000BF3460F068012840F067
:103B9000FA80284600F066FD05F1140000F062FD91
:103BA00005F1280000F05EFD05F13C0000F05AFD33
:103BB00005F1500000F056FD05F1640000F052FDE3
:103BC00005F1780000F04EFD05F18C0000F04AFD93
:103BD00005F1A00000F046FD05F1B40000F042FD43
:103BE00005F1C80000F03EFD05F1DC0000F03AFDF3
:103BF00005F1F00000F036FD05F5827000F032FDB1
:103C000005F58C7000F02EFD05F5967000F02AFD8C
:103C100005F5A07000F026FD05F5AA7000F022FD64
:103C200005F5B47000F01EFD05F5BE7000F01AFD3C
:103C300005F5C87000F016FD05F5D27000F012FD14
:103C400005F5DC7000F00EFD05F5E67000F00AFDEC
:103C500005F5F07000F006FD05F5FA7000F002FDC4
:103C600005F5027000F0FEFC05F5077000F0FAFCA7
:103C700005F50C7000F0F6FC05F5117000F0F2FC93
:103C800005F5167000F0EEFC05F51B7000F0EAFC7F
:103C900005F5207000F0E6FC05F5257000F0E2FC6B
:103CA00005F52A7000F0DEFC05F52F7000F0DAFC57
:103CB00005F5347000F0D6FC05F5397000F0D2FC43
:103CC00005F53E7000F0CEFC05F5437000F0CAFC2F
:103CD00005F5487000F0C6FC05F54D7000F0C2FC1B
:103CE00005F5527000F0BEFC05F5577000F0BAFC07
:103CF00005F55C7000F0B6FC05F5617000F0B2FCF3
:103D000005F5667000F0AEFC05F56B7000F0AAFCDE
:103D100005F5707000F0A6FC05F5757000F0A2FCCA
:103D200005F57A7000F09EFC05F57F7000F09AFCB6
:103D300005F5826000F096FC05F2244000F092FC4C
:103D400005F5876000F08EFC05F24C4000F08AFC1F
:103D500040F21068C2F20008404600F083FC08F10F
:103D60001407384600F07EFC06F1640000F07AFC8F
:103D700006F13C0000F076FC06F1500000F072FC09
:103D8000C6F81C8037627068716A421CE06A726013
:103D90008842626488BF706200EB800005EB80009F
:103DA000211D00F0A1FC00F0DBFC306988B1306817
:103DB000E16AC06A884228BFBDE8F0814EF604502F
:103DC000CEF200004FF080510160BFF34F8FBFF380
:103DD0006F8FBDE8F081000040F2085540F6DC46E8
:103DE0004EF60458C2F20005C2F20006CEF20008F8
:103DF0004FF0805703E000BF204600F0C9FCA868E0
:103E0000D0B100F089FCA86CC468201D00F0FCFB58
:103E1000E8680138E860A8680138A86000F0A0FCF4
:103E200094F859000228EAD00128E5D070B9206B37
:103E300000F0AEFCE0E700BF30680228DFD3C8F82E
:103E40000070BFF34F8FBFF36F8FD8E74FF0500074
:103E500080F31188BFF36F8FBFF34F8FFEE7000031
:103E60002DE9F0470A9C8246206B16460F46DDE995
:103E700008599100A5229846FCF71DFB206B002FE6
:103E800000EB8600A0F1040020F0070656D0387839
:103E900084F83400387800284BD0787884F83500DE
:103EA0007878002845D0B87884F83600B8780028AB
:103EB0003FD0F87884F83700F878D0B3387984F8B0
:103EC00038003879A8B3787984F83900787980B3E4
:103ED000B87984F83A00B87958B3F87984F83B0097
:103EE000F87930B3387A84F83C00387A08B3787AB5
:103EF00084F83D00787AE0B1B87A84F83E00B87A68
:103F0000B8B1F87A84F83F00F87A90B1387B84F839
:103F10004000387B68B1787B84F84100787B40B101
:103F2000B87B84F84200B87B00281CBFF87B84F87B
:103F30004300002084F8430003E000BF002084F821
:103F400034000027201D372D28BF3725E562C4E93E
:103F5000135700F093FB04F1180000F08FFBC5F13C
:103F60003800A0613046514642462461646267656C
:103F700084F8587000F036FBB9F1000F206018BFCC
:103F8000C9F80040BDE8F08708480068006880F381
:103F900008884FF0000080F3148862B661B6BFF362
:103FA0004F8FBFF36F8F00DF00BF000008ED00E010
:103FB00081B00020009040F2A440C2F200000068EE
:103FC0004FF0500181F31188BFF36F8FBFF34F8F14
:103FD000013007D0FEE700BF009830B9009820B943
:103FE000009810B900980028F6D001B07047000082
:103FF00088B040F2805AC2F2000A0DF11009EB4677
:10400000DAF8080005681DB1C068046801E000BF67
:10401000002400F035FE01F07FFCDAF810100646AF
:10402000884220D3002DCAF8106051D0A6424FD349
:1040300001F07AFDDAF80800C068C7683D1D28461F
:1040400000F0E2FA97F82800410745D400F0FE009E
:1040500087F8280084E000BF6860DAF80800394675
:104060002D6100F00FFBDAF80800016831B3C06879
:10407000C56804682F1D384600F0C6FA296A28462C
:10408000884795F828004007EDD5A8692044A0424C
:10409000E2D8DAF80000002800F04881002004A9E6
:1040A00031C101F029FCDAF8000049460022002362
:1040B00000F0DCFF0028D6D138E100BFDAF80C10A0
:1040C000CAF81060CAE9021001F02EFD1AE100BF23
:1040D00065B1002210E000BFB8693F610119B1422B
:1040E00079601FD90AF1080021E000BFDAF80C005E
:1040F0000068B0FA80F04209DAF80000A11B00F075
:1041000053FC01F011FD002840F0FC804EF60450F5
:10411000CEF200004FF080510160BFF34F8FBFF32C
:104120006F8FEFE0311B814206D20AF10C0000686C
:10413000294600F0A7FA13E0DAF80000002800F0A2
:104140001381002004A991C101F0D6FBDAF8000028
:1041500049460022002300F089FF002800F0048176
:10416000396A38468847CDE00098B0F1FF3F07DC58
:10417000DDE90120039990470098002800F1C280F2
:10418000029E706910B1301D00F03EFA01F0C4FBD0
:10419000DAF81010074688420DD30098CAF810705C
:1041A00009283FD9AEE000BF6860DAF80800214670
:1041B0002D6100F067FADAF80800016841B3C068C1
:1041C000C568D0F800802C1D204600F01DFA296A31
:1041D0002846884795F828004007ECD5A869404450
:1041E0004045E1D8DAF80000002800F09580002072
:1041F000CDE90408069501F07FFBDAF80000494696
:104200000022002300F032FF0028D4D184E000BF58
:10421000DAF80C10CAE902100098CAF810700928E0
:1042200000F27080DFE800F00606064448620606E9
:10423000444800BF96F82800019A40F00101B06997
:1042400086F828108318314641F8043FBB42366196
:1042500006D997420AF1080007D293420AD204E035
:10426000BA1A824206D20AF10C00006800F00AFA7B
:1042700048E000BF316A3046884796F8280040077A
:1042800040D5DAF8000000285AD00198B1690696A6
:1042900008440021CDE9041001F02EFBDAF80000FB
:1042A00049460022002300F0E1FE58BB48E000BF71
:1042B00096F8280022E000BF96F8280040F001019F
:1042C000019886F828100028B06143D03844314660
:1042D0000AF10C0241F8040F3661B84288BF0AF1B6
:1042E0000802106800F0CEF90CE000BF96F8280034
:1042F000810703D4304600F04BFA03E000F0FE00E3
:1043000086F82800DAF800005946002201F0B2F8D9
:1043100000287FF429AF73E64FF0500080F3118836
:10432000BFF36F8FBFF34F8FFEE700BF4FF050001A
:1043300080F31188BFF36F8FBFF34F8FFEE700BF8D
:104340004FF0500080F31188BFF36F8FBFF34F8F92
:10435000FEE700BF4FF0500080F31188BFF36F8F6E
:10436000BFF34F8FFEE700BF4FF0500080F311887E
:10437000BFF36F8FBFF34F8FFEE70000F0B581B042
:10438000044600F0C9F994F94560012E0FDB04F1F1
:10439000240500BF286850B1284601F08BFB002897
:1043A00018BF00F075FBF0B2013E0128F2D8FF26DD
:1043B00084F8456000F0D4F900F0AEF994F9447047
:1043C000012F0EDB04F11005286850B1284601F0DA
:1043D00071FB002818BF00F05BFBF8B2013F012819
:1043E000F2D884F8446001B0BDE8F04000F0B8B9FC
:1043F00070B5044600F044FC40F2BC5CC2F2000C14
:10440000DCF8040050B19CF80000002818BF4FF001
:1044100000404FF0000544BB83E000BF41F23D1077
:10442000C2F20000420700F5705200F1070122F0CD
:10443000070218BF21F007000021A2F10803CCE910
:104440000601CCF8043042E90211DCF80420191A04
:10445000C0E9002101208CF800004FF00040CCE9B9
:104460000211002C4FF000055BD0204059D124F000
:10447000070000F11002600708BF04F10802DCF831
:104480000800511E81424CD2604650F818EFDEF809
:10449000045095422BD2DEF80010B9B174464D6835
:1044A000954217D20B68ABB15D68954216D2186879
:1044B000A0B14568954215D204689CB165689542E3
:1044C00014D22168A6460029E9D110E00CF11800A9
:1044D0000DE000BF8E46204609E000BF9E4608461C
:1044E00005E000BF8646184601E000BFA646DCF89E
:1044F00004108E4514D00168DEF80040AB1A112B71
:1045000004604DD30EEB0205680719D04FF0500040
:1045100080F31188BFF36F8FBFF34F8FFEE700BFAB
:10452000002501F001FB68075AD04FF0500080F3DE
:104530001188BFF36F8FBFF34F8F00BFFEE700BF3F
:104540000CF118006B60CEF8042000BF0368AB428A
:104550000AD21868A8420BD20368AB4204D218688A
:104560001A46A842F2D304E00246184601E000BF12
:104570001A4654686B681619AE4202D12344154698
:104580005360EC18844207D1DCF80440A04203D009
:10459000D0E9000423446B60AA42286018BF15606C
:1045A000DEF80400DCE9022301F10805111A994242
:1045B000CCF8081038BFCCF80C109CF8001000297B
:1045C0004FF0000118BF40F00040CEE90010DCF8C9
:1045D00010000130CCF8100001F0A6FA6807A4D151
:1045E000284670BD034643F6B17021F00101C0F6C4
:1045F00000004FF0807C03E903106FF00201A3F18B
:10460000440043E909127047D0E9013201699A6018
:10461000D1F804C082688445536008BF4A60002214
:1046200002610868013808600868704745F2441361
:10463000C2F20003036044F64450C2F20000086076
:104640004FF480701060704745F6A013C2F200036B
:10465000036045F2A010C2F2000008604FF4007041
:10466000106070474FF0FF31024642F8081F0021EA
:104670004260C0E90322016070470000002101612F
:104680007047000010B5D1F800E01EF1010213D010
:1046900000F1080462681368734511D853681C68F8
:1046A000744511D85A68146874450FD85468236843
:1046B000A4467345EED90BE00269D2F804C007E0C6
:1046C0009446224604E000BF9C4601E094461A4608
:1046D000C1F804C0CCF808108A6051600861016814
:1046E0000131016010BD0000D0F800C043680861CE
:1046F0009A684B608A609A68996051600CF1010178
:1047000001607047DFF80C00016841F4700101603E
:104710007047000088ED00E04FF0500080F31188F2
:10472000BFF36F8FBFF34F8F40F2A440C2F200007F
:1047300001684A1C026009B1704700BF4EF6045080
:10474000CEF200000068000608BF70474FF050002E
:1047500080F31188BFF36F8FBFF34F8FFEE7000028
:1047600040F2A440C2F20000016839B10139016091
:1047700018BF7047002080F3118870474FF0500039
:1047800080F31188BFF36F8FBFF34F8FFEE70000F8
:1047900070B5002808BF70BD40F2BC55C2F20005DC
:1047A0000446287854F8041C002818BF4FF0004035
:1047B00008420DD0A4F1080632689AB14FF05000BB
:1047C00080F31188BFF36F8FBFF34F8FFEE700BFF9
:1047D0004FF0500080F31188BFF36F8FBFF34F8FFE
:1047E000FEE700BF21EA000044F8040C00F048FA9C
:1047F00054F8041CA8680844A86005F1180000BF1C
:104800000368B3420AD21868B04225D20368B342A3
:1048100004D218681A46B042F2D301E002461846A4
:104820005368D418B44202D1194416465160731823
:10483000834206D16B68984203D0D0E90003194443
:104840007160B242306018BF1660686901306861FB
:10485000BDE8704001F068B91A465368D418B442F4
:10486000E5D1E1E74EF21000CEF200000021016038
:10487000816040F26801C2F20001096844F6D35237
:10488000C1F26202A1FB02124FF0FF3101EB921163
:10489000416007210160704740F2DC50EFF3058171
:1048A0001029C2F2000011D34EF2F032CEF2000213
:1048B000895C0278914209D24FF0500080F3118850
:1048C000BFF36F8FBFF34F8FFEE700BF4EF60C5163
:1048D000CEF200010968406801F4E061814298BFAE
:1048E00070474FF0500080F31188BFF36F8FBFF314
:1048F0004F8F00BFFEE7000045F6FC1CC2F2000C23
:10490000DCF8002022B3634653F8082F42B3634615
:1049100053F8102F52B3634653F8182F62B363460F
:1049200053F8202F72B3634653F8282F82B363469F
:1049300053F8302F92B3634653F8382F002A18BF2C
:104940007047072219600CEBC2014860704700BF36
:104950000022634619600CEBC2014860704700BF3B
:10496000012219600CEBC2014860704702221960F5
:104970000CEBC20148607047032219600CEBC201C6
:1049800048607047042219600CEBC2014860704710
:10499000052219600CEBC2014860704706221960BD
:1049A0000CEBC2014860704770B515460E460446D0
:1049B000FFF7B2FE94F84400FF2804BF002084F8FB
:1049C000440094F84500FF2804BF002084F8450007
:1049D000FFF7C6FEA06B28B12046BDE87040FFF788
:1049E000CDBC00BF04F1240031462A4600F092F805
:1049F0002046BDE87040FFF7C1BC000070B588B329
:104A000040F20855C2F200050446686950B14FF003
:104A1000500080F31188BFF36F8FBFF34F8F00BF3B
:104A2000FEE700BF686901306861AE69286804303C
:104A3000FFF7EAFD2868A419446005D3286A2968AD
:104A40000431FFF71FFE08E0E86929680431FFF729
:104A500019FEE86A844238BFEC6201F065F800286C
:104A600018BF70BD4EF60450CEF200004FF08051DA
:104A70000160BFF34F8FBFF36F8F70BD40F20851DD
:104A8000C2F200018A6B02608969416070470000D0
:104A900040F20850C2F2000001210163704700009B
:104AA00070B5D8B140F20854C2F200040D46216836
:104AB0001831FFF7E7FDA66920680430FFF7A4FD71
:104AC000681C15D02068AD19456019D3206A21688B
:104AD0000431BDE87040FFF7D5BD00BF4FF0500076
:104AE00080F31188BFF36F8FBFF34F8FFEE700BFD6
:104AF00054F8500B011D2046BDE87040FFF7F4BD8F
:104B0000E06921680431FFF7BDFDE06A854238BFE6
:104B1000E56270BDF0B581B0C0B140F20854C2F298
:104B200000040D46216816461831FFF7DDFDA76920
:104B300020680430FFF768FD96B154F8500B011D52
:104B4000204601B0BDE8F040FFF7CEBD4FF0500069
:104B500080F31188BFF36F8FBFF34F8FFEE700BF65
:104B60002068ED19456007D3206A2168043101B03F
:104B7000BDE8F040FFF786BDE06921680431FFF72A
:104B800081FDE06A854238BFE56201B0F0BD0000FA
:104B900010B588B00020CDE9050006A805A904AA33
:104BA000FFF744FD059800283ED0069C002C45D018
:104BB0005C21049A079107995C2949D107992063E0
:104BC000022084F8590007A80021CDE9001043F61F
:104BD000D950C0F6000028A100230294FFF740F945
:104BE0002046FEF7B3FF079840F20854C2F20004D3
:104BF000A062B0B101F010F8411C33D0012810D1EF
:104C00004FF0500080F31188BFF36F8FBFF34F8FC9
:104C10004FF0FF30E062012020610020A06100F031
:104C200095F808B010BD00BF4FF0500080F3118818
:104C3000BFF36F8FBFF34F8FFEE700BF4FF0500001
:104C400080F31188BFF36F8FBFF34F8FFEE700BF74
:104C50004FF0500080F31188BFF36F8FBFF34F8F79
:104C6000FEE700BF4FF0500080F31188BFF36F8F55
:104C7000BFF34F8FFEE700BF49444C4500000000E2
:104C800040F20850C2F200004169013141617047B1
:104C900080B540F2085EC2F2000EDEF8141019B1C1
:104CA0000121CEF8301080BD0021CEF83010DEF8A2
:104CB000241040F6DC4C01EB8103C2F2000C5CF8DE
:104CC00023208AB101EB81020CEB820353F8042FFD
:104CD0005268181D82421A6020D0D068CEF80000B9
:104CE000CEF8241080BD00BF0CEB8302A2F1280394
:104CF000E1B15A6922BB012918D01A6812BB0229F6
:104D000014D053F8142CFAB903290FD053F8282CD7
:104D10000439002AA3F15003EAD0D3E752681A609D
:104D2000D068CEF80000CEF8241080BD4FF05000BF
:104D300080F31188BFF36F8FBFF34F8FFEE700BF83
:104D40000139BFE70239BDE70339BBE7B0B584B02D
:104D50004EF2004CCEF2000C4CF27021C4F20F1156
:104D6000DCF800294B1C9A420AD14FF0500080F326
:104D70001188BFF36F8FBFF34F8F00BFFEE700BFF7
:104D8000DCF800298A4209D14FF0500080F31188E5
:104D9000BFF36F8FBFF34F8FFEE700BF9CF800108B
:104DA0000291FF218CF800109CF800108DF807107C
:104DB0009DF8071001F0500240F2DC51C2F20001F0
:104DC0000A7007224A609DF90720B2F1FF3F6BDCB1
:104DD000032200BFD31C4B609DF8070040008DF8F4
:104DE00007009DF90700B0F1FF3F24DC931C4B60E6
:104DF0009DF8070040008DF807009DF90700B0F10D
:104E0000FF3F18DC531C4B609DF8070040008DF8F5
:104E100007009DF90700B0F1FF3F0CDC4A609DF8E8
:104E20000700043A40008DF807009DF90700B0F133
:104E3000FF3FCFDD131D032B36D14FF44070486088
:104E400002988CF80000DCF8200940F47000CCF8DF
:104E50002009DCF8200940F07040CCF82009FFF769
:104E600001FD40F2A444C2F2000400252560FFF7D2
:104E700049FC4EF63470CEF20000016841F040412A
:104E80000160FFF781F8FFF703FF039520684FF0FB
:104E9000500181F31188BFF36F8FBFF34F8F013043
:104EA00012D000BFFEE700BF4FF0500080F3118822
:104EB000BFF36F8FBFF34F8FFEE700BF039830B98A
:104EC000039820B9039810B903980028F6D0002061
:104ED00004B0B0BD80B54FF0500080F31188BFF32F
:104EE0006F8FBFF34F8F00F01DFD30B14EF60450B1
:104EF000CEF200004FF080510160002080F3118855
:104F000080BD0000C0B32DE9F04106464843503053
:104F100014460F46FFF76CFA054650B34FF00008F1
:104F2000284685F84680002F18BF50302860C5E914
:104F30000F67FFF7F1FB2868D5E90F12C5F8388035
:104F400002FB0103013901FB0201C5E90103FF2056
:104F5000E96085F8440085F8450005F11000FFF789
:104F600081FB05F12400FFF77DFBFFF7F9FB85F8D6
:104F70004C402846BDE8F0814FF0500080F3118886
:104F8000BFF36F8FBFF34F8FFEE7000070B582B0A5
:104F900070B11C46B3B1F9B9F2B14FF0500080F3D3
:104FA0001188BFF36F8FBFF34F8F00BFFEE700BFC5
:104FB0004FF0500080F31188BFF36F8FBFF34F8F16
:104FC000FEE700BF4FF0500080F31188BFF36F8FF2
:104FD000BFF34F8FFEE700BF51B14AB94FF0500009
:104FE00080F31188BFF36F8FBFF34F8FFEE700BFD1
:104FF00050230193019B502B2ED1019B069E012330
:1050000084F84630002908BF22462260C4E90F0117
:10501000FFF782FB2068D4E90F12002502FB010391
:10502000013901FB0201A563C4E90103FF20E1602E
:1050300084F8440084F8450004F11000FFF712FBE7
:1050400004F12400FFF70EFBFFF78AFB204684F8EB
:105050004C6002B070BD00BF4FF0500080F311886B
:10506000BFF36F8FBFF34F8FFEE700002DE9F04FC6
:1050700083B00292C0B11D4617460E460446E9B100
:10508000022D02D1E06B01285AD100F035FC18BB8B
:1050900017B34FF0500080F31188BFF36F8FBFF349
:1050A0004F8F00BFFEE700BF4FF0500080F3118824
:1050B000BFF36F8FBFF34F8FFEE700BF206C002858
:1050C000DED04FF0500080F31188BFF36F8FBFF335
:1050D0004F8F00BFFEE700BFFFF71EFBA06B022D46
:1050E00065D0E16B884262D30298002800F01681F7
:1050F0006846FFF7C3FCFFF733FBFFF7C1FDFFF77F
:105100000BFB94F84400FF2804BF002084F84400FF
:1051100094F84500FF2804BF002084F84500FFF7FD
:105120001FFB684602A900F02FFB98B12046FFF74D
:1051300025F900F0F9FC002003B0BDE8F08F00BFB6
:105140004FF0500080F31188BFF36F8FBFF34F8F84
:10515000FEE700BF04F11008FFF7DEFAD4F838903C
:10516000E76BFFF7FDFAB94516D102994046FFF704
:1051700097FC2046FFF702F900F0D6FC88B94EF6FE
:105180000450CEF200004FF080510160BFF34F8F0A
:10519000BFF36F8F05E000BF2046FFF7EFF800F088
:1051A000C3FCFFF7B9FAA06BE16B884264D2A76B2E
:1051B000226CDAB125B3E0683146FBF705F9E16806
:1051C000206C2268091A9142E16003D2A168404232
:1051D0000844E060A81EB0FA80F040093946002F6C
:1051E00018BF012108403F1A17E000BF20680025C2
:1051F000A0B9A06800F018FCA56005460EE000BF4D
:1052000060683146FBF7E0F8D4E90101226C1044F4
:105210008842606001D3206860600025781CA0632C
:1052200054F8240FA0B1204600F044FC50B14EF6D3
:105230000450CEF200004FF080510160BFF34F8F59
:10524000BFF36F8FFFF78CFA012003B0BDE8F08F3A
:10525000002DF7D04EF60450CEF200004FF08051F2
:105260000160BFF34F8FBFF36F8FFFF779FA012013
:1052700003B0BDE8F08F00BFE94602AF0CE000BF0D
:105280002046FFF77BF800F04FFCFFF745FAA06BD4
:10529000E16B8842FFF48BAF029800283ED0FFF705
:1052A0005FFAFFF7EDFCFFF737FA94F84400FF28A8
:1052B00004BF002084F8440094F84500FF2804BF90
:1052C000002084F84500FFF74BFA4846394600F0C5
:1052D0005BFA00287FF42AAFFFF71EFAD4F838A053
:1052E000D4F83CB0FFF73CFADA45C9D10299404600
:1052F000FFF7D6FB2046FFF741F800F015FC002829
:10530000C3D14EF60450CEF200004FF08051016040
:10531000BFF34F8FBFF36F8FB7E700BFFFF720FAE0
:10532000002003B0BDE8F08F2DE9F04700B31E4622
:10533000144605460F4629B3022E02D1E86B012818
:1053400052D1FFF7A9FAEFF311884FF0500080F324
:105350001188BFF36F8FBFF34F8FA86B022E1FD042
:10536000E96B88421CD3002088F31188BDE8F087E0
:105370004FF0500080F31188BFF36F8FBFF34F8F52
:10538000FEE700BF286C0028D6D04FF0500080F315
:105390001188BFF36F8FBFF34F8F00BFFEE700BFD1
:1053A00095F84590A86BD5F838A02A6C32B36EB347
:1053B000E8683946FBF708F8E968286C2A68091A92
:1053C0009142E96003D2A96840420844E860B01EF7
:1053D000B0FA80F040095146BAF1000F18BF012120
:1053E0000840AAEB000A1EE04FF0500080F311883D
:1053F000BFF36F8FBFF34F8FFEE700BF286890B9F0
:10540000A86800F011FB0020A8600CE0686839462D
:10541000FAF7DAFFD5E901012A6C10448842686086
:1054200001D3286868600AF10100B9F1FF0FA86391
:1054300010D155F8240F88B1284600F03BFB0146F7
:10544000002C4FF0010018BF00290DD188F31188FE
:10545000BDE8F08709F1010085F84500012088F3D7
:105460001188BDE8F08700BF206088F31188BDE88F
:10547000F08700002DE9F04F83B0029290B11646FC
:105480000D460446002947D000F036FAA0B99EB177
:105490004FF0500080F31188BFF36F8FBFF34F8F31
:1054A000FEE700BF4FF0500080F31188BFF36F8F0D
:1054B000BFF34F8FFEE700BFFFF72EF9D4F838A0F7
:1054C000BAF1000F36D0226C52B1D4E90201114476
:1054D000E160814224BF2168E1602846FAF774FF49
:1054E000AAF10100A06354F8100F70B1204600F03B
:1054F000E1FA50B14EF60450CEF200004FF0805168
:105500000160BFF34F8FBFF36F8F0124FFF728F9BE
:10551000204603B0BDE8F08F206C0028B4D04FF0D7
:10552000500080F31188BFF36F8FBFF34F8F00BF20
:10553000FEE700BF0298002800F0B4806846FFF73D
:105540009DFAFFF70DF9FFF79BFBFFF7E5F894F8DD
:10555000440004F12408FF2804BF002084F844001C
:1055600094F84500FF2804BF002084F84500FFF7A9
:10557000F7F8684602A900F007F978B12046FEF76F
:10558000FDFE00F0D1FAFFF7C7F8A66BFFF7E8F8C9
:105590002EBB0024204603B0BDE8F08FFFF7BCF817
:1055A000A66BFFF7DDF82EB12046FEF7E7FE00F010
:1055B000BBFA14E002994046FFF772FA2046FEF764
:1055C000DDFE00F0B1FA50B94EF60450CEF2000004
:1055D0004FF080510160BFF34F8FBFF36F8FFFF724
:1055E0009BF8D4F838A0BAF1000F7FF46CAF4FF0FD
:1055F0000009EB4602AE13E02046FEF7BFFE00F0C6
:1056000093FAFFF789F8A76BFFF7AAF8002FC0D02D
:10561000FFF782F8D4F838A0BAF1000F7FF453AF47
:10562000029800283ED0FFF79BF8FFF729FBFFF711
:1056300073F894F84400FF2808BF84F8449094F865
:105640004500FF2808BF84F84590FFF789F85846C1
:10565000314600F099F80028CED1FFF75DF8A76B2E
:10566000FFF77EF837B12046FEF788FE00F05CFABF
:10567000CEE700BF02994046FFF712FA2046FEF738
:105680007DFE00F051FA0028C2D14EF60450CEF251
:1056900000004FF080510160BFF34F8FBFF36F8F59
:1056A000B6E700BF0024FFF75BF8204603B0BDE873
:1056B000F08F00002DE9F04381B000283CD09146E6
:1056C00005460E46002941D0FFF7E6F8EFF31188B2
:1056D0004FF0500080F31188BFF36F8FBFF34F8FEF
:1056E000AC6B002C40D095F844702A6C52B1D5E9CF
:1056F00002011144E960814224BF2968E960304613
:10570000FAF762FE601EFF2FA86333D155F8100F21
:10571000002832D0284600F0CDF90146B9F1000F3B
:105720004FF0010003D0002918BFC9F8000088F32A
:10573000118801B0BDE8F0834FF0500080F311886C
:10574000BFF36F8FBFF34F8FFEE700BF286C0028B9
:10575000BAD04FF0500080F31188BFF36F8FBFF3C2
:105760004F8F00BFFEE700BF002088F3118801B013
:10577000BDE8F083781C85F84400012088F3118887
:1057800001B0BDE8F0830000B0B538B30D4679B381
:105790000446FEF7C1FF40F2085CC2F2000CDCF8E0
:1057A000182029684B1C2DD0D4E9000EDCF83830C5
:1057B000834201D072452DD2A2EB0E02914227D92D
:1057C000881A2860DCF838002060DCF81800606077
:1057D0000024FEF7C5FF2046B0BD00BF4FF05000CB
:1057E00080F31188BFF36F8FBFF34F8FFEE700BFC9
:1057F0004FF0500080F31188BFF36F8FBFF34F8FCE
:10580000FEE700BF0024FEF7ABFF2046B0BD00BF9F
:10581000002028600124FEF7A3FF2046B0BD000051
:105820002DE9F04383B00746900098461546894617
:10583000FEF7DEFDF8B106465C20FEF7D9FDB8B1F3
:105840000446DDE90A100022266384F85920CDE9D8
:105850000010384649462A4643460294FEF700FBAC
:105860002046FEF773F9012003B0BDE8F08300BFC6
:105870003046FEF78DFF4FF0FF3003B0BDE8F083F8
:1058800070B586B00B9CCCB10C9E0EB35C25049514
:10589000049D5C2D26D1049DDDF828C0022586F8E4
:1058A000595005AD3463CDE900C50296FEF7D8FA2C
:1058B0003046FEF74BF9059806B070BD4FF050002A
:1058C00080F31188BFF36F8FBFF34F8FFEE700BFE8
:1058D0004FF0500080F31188BFF36F8FBFF34F8FED
:1058E000FEE700BF4FF0500080F31188BFF36F8FC9
:1058F000BFF34F8FFEE7000040F20850C2F20000F5
:10590000016900290FBF01204069B0FA80F0400909
:1059100018BF40007047000040F20850C2F200007B
:10592000806970472DE9F04381B040F20856C2F219
:105930000006706940B1706B00240130706320462E
:1059400001B0BDE8F08300BFB06910F10109C6F8ED
:10595000189020D3F069006850B14FF0500080F3E8
:105960001188BFF36F8FBFF34F8F00BFFEE700BFFB
:10597000F069316AF1613062B06B0130B063F06997
:10598000006828B1F069C068C068406802E000BFE4
:105990004FF0FF30F062F06A40F6DC488145C2F219
:1059A000000801D200242EE0F0690024006813E012
:1059B000F86A716A884288BF706200EB800008EB69
:1059C00080002946FEF790FEF86A3168C96AF269DC
:1059D000884228BF0124106890B1F069C068C76888
:1059E0003D4655F8040F81450CD32846FEF70CFEC2
:1059F000B86A0028DCD007F11800FEF705FED7E7EB
:105A00004FF0FF30F0623068C06A00EB800058F859
:105A10002000012888BF0124306B002818BF012412
:105A2000204601B0BDE8F08370B588B140F2085659
:105A3000C2F2000604463068A0420BD04FF050007E
:105A400080F31188BFF36F8FBFF34F8FFEE700BF66
:105A5000002070BD206D18B3013820654FF00000A4
:105A600018BF70BDE16AE26C914218D0251D28462E
:105A7000FEF7CAFDE06CC0F13801E062A161716A15
:105A8000884240F6DC4188BF706200EB8000C2F2C1
:105A9000000101EB80002946FEF726FE012070BDC3
:105AA0004FF0500080F31188BFF36F8FBFF34F8F1B
:105AB000FEE7000070B5C068C5686DB105F1180457
:105AC0002046FEF7A1FD40F20856C2F200067069BA
:105AD00060B106F164001AE04FF0500080F31188C5
